{
	"data": {
		"bytecode": {
			"linkReferences": {},
			"object": "6080604052336000806101000a81548173ffffffffffffffffffffffffffffffffffffffff021916908373ffffffffffffffffffffffffffffffffffffffff160217905550611fa2806100536000396000f30060806040526004361061013e576000357c0100000000000000000000000000000000000000000000000000000000900463ffffffff16806301135df2146101435780631fbfb3e11461017157806321ee0f14146101dd57806354072d2514610249578063580e2af41461029357806365fc1253146102e6578063686c251c1461034c57806369c0ad931461037a57806384e51f8a146103e05780638da5cb5b1461043357806391cf58c71461048a57806391ed9249146104bb578063925c036b14610501578063b533aaf314610554578063b75c4f80146105a7578063bc0eed1f14610613578063be7c1c8414610641578063c6610f9414610694578063dec27bff146106e0578063e6458f6e1461070e578063ea32c6f91461077a578063ee5d276f146107cd578063f2fde38b14610839578063fe8e080e1461087c575b600080fd5b34801561014f57600080fd5b5061016f60048036038101908080610c60019091929192905050506108c6565b005b34801561017d57600080fd5b5061019f600480360381019080803560ff16906020019092919050505061099f565b6040518082600560200280838360005b838110156101ca5780820151818401526020810190506101af565b5050505090500191505060405180910390f35b3480156101e957600080fd5b5061020b600480360381019080803560ff169060200190929190505050610a23565b6040518082600560200280838360005b8381101561023657808201518184015260208101905061021b565b5050505090500191505060405180910390f35b34801561025557600080fd5b50610277600480360381019080803560ff169060200190929190505050610aa7565b604051808260ff1660ff16815260200191505060405180910390f35b34801561029f57600080fd5b506102a8610ad8565b6040518082603760200280838360005b838110156102d35780820151818401526020810190506102b8565b5050505090500191505060405180910390f35b3480156102f257600080fd5b5061034a60048036038101908080359060200190820180359060200190808060200260200160405190810160405280939291908181526020018383602002808284378201915050505050509192919290505050610b89565b005b34801561035857600080fd5b506103786004803603810190808061064001909192919290505050610d03565b005b34801561038657600080fd5b506103de60048036038101908080359060200190820180359060200190808060200260200160405190810160405280939291908181526020018383602002808284378201915050505050509192919290505050610ddc565b005b3480156103ec57600080fd5b506103f5610ef8565b6040518082603260200280838360005b83811015610420578082015181840152602081019050610405565b5050505090500191505060405180910390f35b34801561043f57600080fd5b50610448610fa6565b604051808273ffffffffffffffffffffffffffffffffffffffff1673ffffffffffffffffffffffffffffffffffffffff16815260200191505060405180910390f35b34801561049657600080fd5b5061049f610fcb565b604051808260ff1660ff16815260200191505060405180910390f35b3480156104c757600080fd5b506104ff60048036038101908080610140019091929192908061016001909192919290803560ff169060200190929190505050610fe2565b005b34801561050d57600080fd5b506105166110ea565b6040518082600a60200280838360005b83811015610541578082015181840152602081019050610526565b5050505090500191505060405180910390f35b34801561056057600080fd5b5061056961115b565b6040518082600b60200280838360005b83811015610594578082015181840152602081019050610579565b5050505090500191505060405180910390f35b3480156105b357600080fd5b506105bc6111ce565b6040518080602001828103825283818151815260200191508051906020019060200280838360005b838110156105ff5780820151818401526020810190506105e4565b505050509050019250505060405180910390f35b34801561061f57600080fd5b5061063f600480360381019080806106e00190919291929050505061125c565b005b34801561064d57600080fd5b50610656611335565b6040518082606360200280838360005b83811015610681578082015181840152602081019050610666565b5050505090500191505060405180910390f35b3480156106a057600080fd5b506106c2600480360381019080803560ff1690602001909291905050506113a6565b604051808261ffff1661ffff16815260200191505060405180910390f35b3480156106ec57600080fd5b5061070c60048036038101908080610640019091929192905050506113db565b005b34801561071a57600080fd5b506107236114b4565b6040518080602001828103825283818151815260200191508051906020019060200280838360005b8381101561076657808201518184015260208101905061074b565b505050509050019250505060405180910390f35b34801561078657600080fd5b5061078f611542565b6040518082603260200280838360005b838110156107ba57808201518184015260208101905061079f565b5050505090500191505060405180910390f35b3480156107d957600080fd5b506107fb600480360381019080803560ff1690602001909291905050506115f0565b6040518082600560200280838360005b8381101561082657808201518184015260208101905061080b565b5050505090500191505060405180910390f35b34801561084557600080fd5b5061087a600480360381019080803573ffffffffffffffffffffffffffffffffffffffff169060200190929190505050611674565b005b34801561088857600080fd5b506108aa600480360381019080803560ff1690602001909291905050506117ff565b604051808260ff1660ff16815260200191505060405180910390f35b6000809054906101000a900473ffffffffffffffffffffffffffffffffffffffff1673ffffffffffffffffffffffffffffffffffffffff163373ffffffffffffffffffffffffffffffffffffffff1614151561098a576040517f08c379a00000000000000000000000000000000000000000000000000000000081526004018080602001828103825260148152602001807f6e6f74206120636f6e7472616374206f776e657200000000000000000000000081525060200191505060405180910390fd5b80602690606361099b929190611a2c565b5050565b6109a7611ac9565b60048260ff16600b811015156109b957fe5b01600580602002604051908101604052809291908260058015610a17576020028201916000905b82829054906101000a900460ff1660ff16815260200190600101906020826000010492830192600103820291508084116109e05790505b50505050509050919050565b610a2b611ac9565b60198260ff16600a81101515610a3d57fe5b01600580602002604051908101604052809291908260058015610a9b576020028201916000905b82829054906101000a900460ff1660ff1681526020019060010190602082600001049283019260010382029150808411610a645790505b50505050509050919050565b600060238260ff16600a81101515610abb57fe5b602091828204019190069054906101000a900460ff169050919050565b610ae0611aec565b60008060008091505b600b8260ff161015610b8357600090505b60058160ff161015610b765760048260ff16600b81101515610b1857fe5b018160ff16600581101515610b2957fe5b602091828204019190069054906101000a900460ff16848460ff16603781101515610b5057fe5b602002019060ff16908160ff168152505082806001019350508080600101915050610afa565b8180600101925050610ae9565b50505090565b6000809054906101000a900473ffffffffffffffffffffffffffffffffffffffff1673ffffffffffffffffffffffffffffffffffffffff163373ffffffffffffffffffffffffffffffffffffffff16141515610c4d576040517f08c379a00000000000000000000000000000000000000000000000000000000081526004018080602001828103825260148152602001807f6e6f74206120636f6e7472616374206f776e657200000000000000000000000081525060200191505060405180910390fd5b610cde6003805480602002602001604051908101604052809291908181526020018280548015610cd257602002820191906000526020600020905b8160009054906101000a900473ffffffffffffffffffffffffffffffffffffffff1673ffffffffffffffffffffffffffffffffffffffff1681526020019060010190808311610c88575b50505050506000611830565b8060039080519060200190610cf4929190611b10565b50610d00816001611830565b50565b6000809054906101000a900473ffffffffffffffffffffffffffffffffffffffff1673ffffffffffffffffffffffffffffffffffffffff163373ffffffffffffffffffffffffffffffffffffffff16141515610dc7576040517f08c379a00000000000000000000000000000000000000000000000000000000081526004018080602001828103825260148152602001807f6e6f74206120636f6e7472616374206f776e657200000000000000000000000081525060200191505060405180910390fd5b80601990600a610dd8929190611b9a565b5050565b60008060009054906101000a900473ffffffffffffffffffffffffffffffffffffffff1673ffffffffffffffffffffffffffffffffffffffff163373ffffffffffffffffffffffffffffffffffffffff16141515610ea2576040517f08c379a00000000000000000000000000000000000000000000000000000000081526004018080602001828103825260148152602001807f6e6f74206120636f6e7472616374206f776e657200000000000000000000000081525060200191505060405180910390fd5b600090505b8151811015610edd57610ed08282815181101515610ec157fe5b906020019060200201516118df565b8080600101915050610ea7565b8160029080519060200190610ef3929190611b10565b505050565b610f00611be7565b610fa16019600a80602002604051908101604052809291906000905b82821015610f9857838201600580602002604051908101604052809291908260058015610f84576020028201916000905b82829054906101000a900460ff1660ff1681526020019060010190602082600001049283019260010382029150808411610f4d5790505b505050505081526020019060010190610f1c565b50505050611987565b905090565b6000809054906101000a900473ffffffffffffffffffffffffffffffffffffffff1681565b6000602560009054906101000a900460ff16905090565b6000809054906101000a900473ffffffffffffffffffffffffffffffffffffffff1673ffffffffffffffffffffffffffffffffffffffff163373ffffffffffffffffffffffffffffffffffffffff161415156110a6576040517f08c379a00000000000000000000000000000000000000000000000000000000081526004018080602001828103825260148152602001807f6e6f74206120636f6e7472616374206f776e657200000000000000000000000081525060200191505060405180910390fd5b82602390600a6110b7929190611c0b565b5081602490600b6110c9929190611ca8565b5080602560006101000a81548160ff021916908360ff160217905550505050565b6110f2611d49565b6023600a806020026040519081016040528092919082600a8015611151576020028201916000905b82829054906101000a900460ff1660ff168152602001906001019060208260000104928301926001038202915080841161111a5790505b5050505050905090565b611163611d6d565b6024600b806020026040519081016040528092919082600b80156111c4576020028201916000905b82829054906101000a900461ffff1661ffff168152602001906002019060208260010104928301926001038202915080841161118b5790505b5050505050905090565b6060600280548060200260200160405190810160405280929190818152602001828054801561125257602002820191906000526020600020905b8160009054906101000a900473ffffffffffffffffffffffffffffffffffffffff1673ffffffffffffffffffffffffffffffffffffffff1681526020019060010190808311611208575b5050505050905090565b6000809054906101000a900473ffffffffffffffffffffffffffffffffffffffff1673ffffffffffffffffffffffffffffffffffffffff163373ffffffffffffffffffffffffffffffffffffffff16141515611320576040517f08c379a00000000000000000000000000000000000000000000000000000000081526004018080602001828103825260148152602001807f6e6f74206120636f6e7472616374206f776e657200000000000000000000000081525060200191505060405180910390fd5b80600490600b611331929190611d91565b5050565b61133d611dde565b602660638060200260405190810160405280929190826063801561139c576020028201916000905b82829054906101000a900460ff1660ff16815260200190600101906020826000010492830192600103820291508084116113655790505b5050505050905090565b600060248260ff16600b811015156113ba57fe5b601091828204019190066002029054906101000a900461ffff169050919050565b6000809054906101000a900473ffffffffffffffffffffffffffffffffffffffff1673ffffffffffffffffffffffffffffffffffffffff163373ffffffffffffffffffffffffffffffffffffffff1614151561149f576040517f08c379a00000000000000000000000000000000000000000000000000000000081526004018080602001828103825260148152602001807f6e6f74206120636f6e7472616374206f776e657200000000000000000000000081525060200191505060405180910390fd5b80600f90600a6114b0929190611b9a565b5050565b6060600380548060200260200160405190810160405280929190818152602001828054801561153857602002820191906000526020600020905b8160009054906101000a900473ffffffffffffffffffffffffffffffffffffffff1673ffffffffffffffffffffffffffffffffffffffff16815260200190600101908083116114ee575b5050505050905090565b61154a611be7565b6115eb600f600a80602002604051908101604052809291906000905b828210156115e2578382016005806020026040519081016040528092919082600580156115ce576020028201916000905b82829054906101000a900460ff1660ff16815260200190600101906020826000010492830192600103820291508084116115975790505b505050505081526020019060010190611566565b50505050611987565b905090565b6115f8611ac9565b600f8260ff16600a8110151561160a57fe5b01600580602002604051908101604052809291908260058015611668576020028201916000905b82829054906101000a900460ff1660ff16815260200190600101906020826000010492830192600103820291508084116116315790505b50505050509050919050565b6000809054906101000a900473ffffffffffffffffffffffffffffffffffffffff1673ffffffffffffffffffffffffffffffffffffffff163373ffffffffffffffffffffffffffffffffffffffff16141515611738576040517f08c379a00000000000000000000000000000000000000000000000000000000081526004018080602001828103825260148152602001807f6e6f74206120636f6e7472616374206f776e657200000000000000000000000081525060200191505060405180910390fd5b611741816118df565b8073ffffffffffffffffffffffffffffffffffffffff166000809054906101000a900473ffffffffffffffffffffffffffffffffffffffff1673ffffffffffffffffffffffffffffffffffffffff167f8be0079c531659141344cd1fd0a4f28419497f9722a3daafe3b4186f6b6457e060405160405180910390a3806000806101000a81548173ffffffffffffffffffffffffffffffffffffffff021916908373ffffffffffffffffffffffffffffffffffffffff16021790555050565b600060268260ff1660638110151561181357fe5b602091828204019190069054906101000a900460ff169050919050565b60008090505b82518110156118da5761185f838281518110151561185057fe5b906020019060200201516118df565b8160016000858481518110151561187257fe5b9060200190602002015173ffffffffffffffffffffffffffffffffffffffff1673ffffffffffffffffffffffffffffffffffffffff16815260200190815260200160002060006101000a81548160ff0219169083151502179055508080600101915050611836565b505050565b600073ffffffffffffffffffffffffffffffffffffffff168173ffffffffffffffffffffffffffffffffffffffff1614151515611984576040517f08c379a000000000000000000000000000000000000000000000000000000000815260040180806020018281038252600f8152602001807f696e76616c69642061646472657373000000000000000000000000000000000081525060200191505060405180910390fd5b50565b61198f611be7565b60008060008091505b600a8260ff161015611a2457600090505b60058160ff161015611a1757848260ff16600a811015156119c657fe5b60200201518160ff166005811015156119db57fe5b6020020151848460ff166032811015156119f157fe5b602002019060ff16908160ff1681525050828060010193505080806001019150506119a9565b8180600101925050611998565b505050919050565b826063601f01602090048101928215611ab85791602002820160005b83821115611a8957833560ff1683826101000a81548160ff021916908360ff1602179055509260200192600101602081600001049283019260010302611a48565b8015611ab65782816101000a81549060ff0219169055600101602081600001049283019260010302611a89565b505b509050611ac59190611e02565b5090565b60a060405190810160405280600590602082028038833980820191505090505090565b6106e060405190810160405280603790602082028038833980820191505090505090565b828054828255906000526020600020908101928215611b89579160200282015b82811115611b885782518260006101000a81548173ffffffffffffffffffffffffffffffffffffffff021916908373ffffffffffffffffffffffffffffffffffffffff16021790555091602001919060010190611b30565b5b509050611b969190611e32565b5090565b82600a8101928215611bd6579160a00282015b82811115611bd5578282906005611bc5929190611e75565b509160a001919060010190611bad565b5b509050611be39190611f12565b5090565b61064060405190810160405280603290602082028038833980820191505090505090565b82600a601f01602090048101928215611c975791602002820160005b83821115611c6857833560ff1683826101000a81548160ff021916908360ff1602179055509260200192600101602081600001049283019260010302611c27565b8015611c955782816101000a81549060ff0219169055600101602081600001049283019260010302611c68565b505b509050611ca49190611e02565b5090565b82600b600f01601090048101928215611d385791602002820160005b83821115611d0857833561ffff1683826101000a81548161ffff021916908361ffff1602179055509260200192600201602081600101049283019260010302611cc4565b8015611d365782816101000a81549061ffff0219169055600201602081600101049283019260010302611d08565b505b509050611d459190611f3e565b5090565b61014060405190810160405280600a90602082028038833980820191505090505090565b61016060405190810160405280600b90602082028038833980820191505090505090565b82600b8101928215611dcd579160a00282015b82811115611dcc578282906005611dbc929190611e75565b509160a001919060010190611da4565b5b509050611dda9190611f12565b5090565b610c6060405190810160405280606390602082028038833980820191505090505090565b611e2f91905b80821115611e2b57600081816101000a81549060ff021916905550600101611e08565b5090565b90565b611e7291905b80821115611e6e57600081816101000a81549073ffffffffffffffffffffffffffffffffffffffff021916905550600101611e38565b5090565b90565b826005601f01602090048101928215611f015791602002820160005b83821115611ed257833560ff1683826101000a81548160ff021916908360ff1602179055509260200192600101602081600001049283019260010302611e91565b8015611eff5782816101000a81549060ff0219169055600101602081600001049283019260010302611ed2565b505b509050611f0e9190611e02565b5090565b611f3b91905b80821115611f375760008181611f2e9190611f6f565b50600101611f18565b5090565b90565b611f6c91905b80821115611f6857600081816101000a81549061ffff021916905550600101611f44565b5090565b90565b50600090555600a165627a7a7230582096a008788cf418efe45d81840a76174eefdd04a8e25749e53a60906b482c2d2c0029",
			"opcodes": "PUSH1 0x80 PUSH1 0x40 MSTORE CALLER PUSH1 0x0 DUP1 PUSH2 0x100 EXP DUP2 SLOAD DUP2 PUSH20 0xFFFFFFFFFFFFFFFFFFFFFFFFFFFFFFFFFFFFFFFF MUL NOT AND SWAP1 DUP4 PUSH20 0xFFFFFFFFFFFFFFFFFFFFFFFFFFFFFFFFFFFFFFFF AND MUL OR SWAP1 SSTORE POP PUSH2 0x1FA2 DUP1 PUSH2 0x53 PUSH1 0x0 CODECOPY PUSH1 0x0 RETURN STOP PUSH1 0x80 PUSH1 0x40 MSTORE PUSH1 0x4 CALLDATASIZE LT PUSH2 0x13E JUMPI PUSH1 0x0 CALLDATALOAD PUSH29 0x100000000000000000000000000000000000000000000000000000000 SWAP1 DIV PUSH4 0xFFFFFFFF AND DUP1 PUSH4 0x1135DF2 EQ PUSH2 0x143 JUMPI DUP1 PUSH4 0x1FBFB3E1 EQ PUSH2 0x171 JUMPI DUP1 PUSH4 0x21EE0F14 EQ PUSH2 0x1DD JUMPI DUP1 PUSH4 0x54072D25 EQ PUSH2 0x249 JUMPI DUP1 PUSH4 0x580E2AF4 EQ PUSH2 0x293 JUMPI DUP1 PUSH4 0x65FC1253 EQ PUSH2 0x2E6 JUMPI DUP1 PUSH4 0x686C251C EQ PUSH2 0x34C JUMPI DUP1 PUSH4 0x69C0AD93 EQ PUSH2 0x37A JUMPI DUP1 PUSH4 0x84E51F8A EQ PUSH2 0x3E0 JUMPI DUP1 PUSH4 0x8DA5CB5B EQ PUSH2 0x433 JUMPI DUP1 PUSH4 0x91CF58C7 EQ PUSH2 0x48A JUMPI DUP1 PUSH4 0x91ED9249 EQ PUSH2 0x4BB JUMPI DUP1 PUSH4 0x925C036B EQ PUSH2 0x501 JUMPI DUP1 PUSH4 0xB533AAF3 EQ PUSH2 0x554 JUMPI DUP1 PUSH4 0xB75C4F80 EQ PUSH2 0x5A7 JUMPI DUP1 PUSH4 0xBC0EED1F EQ PUSH2 0x613 JUMPI DUP1 PUSH4 0xBE7C1C84 EQ PUSH2 0x641 JUMPI DUP1 PUSH4 0xC6610F94 EQ PUSH2 0x694 JUMPI DUP1 PUSH4 0xDEC27BFF EQ PUSH2 0x6E0 JUMPI DUP1 PUSH4 0xE6458F6E EQ PUSH2 0x70E JUMPI DUP1 PUSH4 0xEA32C6F9 EQ PUSH2 0x77A JUMPI DUP1 PUSH4 0xEE5D276F EQ PUSH2 0x7CD JUMPI DUP1 PUSH4 0xF2FDE38B EQ PUSH2 0x839 JUMPI DUP1 PUSH4 0xFE8E080E EQ PUSH2 0x87C JUMPI JUMPDEST PUSH1 0x0 DUP1 REVERT JUMPDEST CALLVALUE DUP1 ISZERO PUSH2 0x14F JUMPI PUSH1 0x0 DUP1 REVERT JUMPDEST POP PUSH2 0x16F PUSH1 0x4 DUP1 CALLDATASIZE SUB DUP2 ADD SWAP1 DUP1 DUP1 PUSH2 0xC60 ADD SWAP1 SWAP2 SWAP3 SWAP2 SWAP3 SWAP1 POP POP POP PUSH2 0x8C6 JUMP JUMPDEST STOP JUMPDEST CALLVALUE DUP1 ISZERO PUSH2 0x17D JUMPI PUSH1 0x0 DUP1 REVERT JUMPDEST POP PUSH2 0x19F PUSH1 0x4 DUP1 CALLDATASIZE SUB DUP2 ADD SWAP1 DUP1 DUP1 CALLDATALOAD PUSH1 0xFF AND SWAP1 PUSH1 0x20 ADD SWAP1 SWAP3 SWAP2 SWAP1 POP POP POP PUSH2 0x99F JUMP JUMPDEST PUSH1 0x40 MLOAD DUP1 DUP3 PUSH1 0x5 PUSH1 0x20 MUL DUP1 DUP4 DUP4 PUSH1 0x0 JUMPDEST DUP4 DUP2 LT ISZERO PUSH2 0x1CA JUMPI DUP1 DUP3 ADD MLOAD DUP2 DUP5 ADD MSTORE PUSH1 0x20 DUP2 ADD SWAP1 POP PUSH2 0x1AF JUMP JUMPDEST POP POP POP POP SWAP1 POP ADD SWAP2 POP POP PUSH1 0x40 MLOAD DUP1 SWAP2 SUB SWAP1 RETURN JUMPDEST CALLVALUE DUP1 ISZERO PUSH2 0x1E9 JUMPI PUSH1 0x0 DUP1 REVERT JUMPDEST POP PUSH2 0x20B PUSH1 0x4 DUP1 CALLDATASIZE SUB DUP2 ADD SWAP1 DUP1 DUP1 CALLDATALOAD PUSH1 0xFF AND SWAP1 PUSH1 0x20 ADD SWAP1 SWAP3 SWAP2 SWAP1 POP POP POP PUSH2 0xA23 JUMP JUMPDEST PUSH1 0x40 MLOAD DUP1 DUP3 PUSH1 0x5 PUSH1 0x20 MUL DUP1 DUP4 DUP4 PUSH1 0x0 JUMPDEST DUP4 DUP2 LT ISZERO PUSH2 0x236 JUMPI DUP1 DUP3 ADD MLOAD DUP2 DUP5 ADD MSTORE PUSH1 0x20 DUP2 ADD SWAP1 POP PUSH2 0x21B JUMP JUMPDEST POP POP POP POP SWAP1 POP ADD SWAP2 POP POP PUSH1 0x40 MLOAD DUP1 SWAP2 SUB SWAP1 RETURN JUMPDEST CALLVALUE DUP1 ISZERO PUSH2 0x255 JUMPI PUSH1 0x0 DUP1 REVERT JUMPDEST POP PUSH2 0x277 PUSH1 0x4 DUP1 CALLDATASIZE SUB DUP2 ADD SWAP1 DUP1 DUP1 CALLDATALOAD PUSH1 0xFF AND SWAP1 PUSH1 0x20 ADD SWAP1 SWAP3 SWAP2 SWAP1 POP POP POP PUSH2 0xAA7 JUMP JUMPDEST PUSH1 0x40 MLOAD DUP1 DUP3 PUSH1 0xFF AND PUSH1 0xFF AND DUP2 MSTORE PUSH1 0x20 ADD SWAP2 POP POP PUSH1 0x40 MLOAD DUP1 SWAP2 SUB SWAP1 RETURN JUMPDEST CALLVALUE DUP1 ISZERO PUSH2 0x29F JUMPI PUSH1 0x0 DUP1 REVERT JUMPDEST POP PUSH2 0x2A8 PUSH2 0xAD8 JUMP JUMPDEST PUSH1 0x40 MLOAD DUP1 DUP3 PUSH1 0x37 PUSH1 0x20 MUL DUP1 DUP4 DUP4 PUSH1 0x0 JUMPDEST DUP4 DUP2 LT ISZERO PUSH2 0x2D3 JUMPI DUP1 DUP3 ADD MLOAD DUP2 DUP5 ADD MSTORE PUSH1 0x20 DUP2 ADD SWAP1 POP PUSH2 0x2B8 JUMP JUMPDEST POP POP POP POP SWAP1 POP ADD SWAP2 POP POP PUSH1 0x40 MLOAD DUP1 SWAP2 SUB SWAP1 RETURN JUMPDEST CALLVALUE DUP1 ISZERO PUSH2 0x2F2 JUMPI PUSH1 0x0 DUP1 REVERT JUMPDEST POP PUSH2 0x34A PUSH1 0x4 DUP1 CALLDATASIZE SUB DUP2 ADD SWAP1 DUP1 DUP1 CALLDATALOAD SWAP1 PUSH1 0x20 ADD SWAP1 DUP3 ADD DUP1 CALLDATALOAD SWAP1 PUSH1 0x20 ADD SWAP1 DUP1 DUP1 PUSH1 0x20 MUL PUSH1 0x20 ADD PUSH1 0x40 MLOAD SWAP1 DUP2 ADD PUSH1 0x40 MSTORE DUP1 SWAP4 SWAP3 SWAP2 SWAP1 DUP2 DUP2 MSTORE PUSH1 0x20 ADD DUP4 DUP4 PUSH1 0x20 MUL DUP1 DUP3 DUP5 CALLDATACOPY DUP3 ADD SWAP2 POP POP POP POP POP POP SWAP2 SWAP3 SWAP2 SWAP3 SWAP1 POP POP POP PUSH2 0xB89 JUMP JUMPDEST STOP JUMPDEST CALLVALUE DUP1 ISZERO PUSH2 0x358 JUMPI PUSH1 0x0 DUP1 REVERT JUMPDEST POP PUSH2 0x378 PUSH1 0x4 DUP1 CALLDATASIZE SUB DUP2 ADD SWAP1 DUP1 DUP1 PUSH2 0x640 ADD SWAP1 SWAP2 SWAP3 SWAP2 SWAP3 SWAP1 POP POP POP PUSH2 0xD03 JUMP JUMPDEST STOP JUMPDEST CALLVALUE DUP1 ISZERO PUSH2 0x386 JUMPI PUSH1 0x0 DUP1 REVERT JUMPDEST POP PUSH2 0x3DE PUSH1 0x4 DUP1 CALLDATASIZE SUB DUP2 ADD SWAP1 DUP1 DUP1 CALLDATALOAD SWAP1 PUSH1 0x20 ADD SWAP1 DUP3 ADD DUP1 CALLDATALOAD SWAP1 PUSH1 0x20 ADD SWAP1 DUP1 DUP1 PUSH1 0x20 MUL PUSH1 0x20 ADD PUSH1 0x40 MLOAD SWAP1 DUP2 ADD PUSH1 0x40 MSTORE DUP1 SWAP4 SWAP3 SWAP2 SWAP1 DUP2 DUP2 MSTORE PUSH1 0x20 ADD DUP4 DUP4 PUSH1 0x20 MUL DUP1 DUP3 DUP5 CALLDATACOPY DUP3 ADD SWAP2 POP POP POP POP POP POP SWAP2 SWAP3 SWAP2 SWAP3 SWAP1 POP POP POP PUSH2 0xDDC JUMP JUMPDEST STOP JUMPDEST CALLVALUE DUP1 ISZERO PUSH2 0x3EC JUMPI PUSH1 0x0 DUP1 REVERT JUMPDEST POP PUSH2 0x3F5 PUSH2 0xEF8 JUMP JUMPDEST PUSH1 0x40 MLOAD DUP1 DUP3 PUSH1 0x32 PUSH1 0x20 MUL DUP1 DUP4 DUP4 PUSH1 0x0 JUMPDEST DUP4 DUP2 LT ISZERO PUSH2 0x420 JUMPI DUP1 DUP3 ADD MLOAD DUP2 DUP5 ADD MSTORE PUSH1 0x20 DUP2 ADD SWAP1 POP PUSH2 0x405 JUMP JUMPDEST POP POP POP POP SWAP1 POP ADD SWAP2 POP POP PUSH1 0x40 MLOAD DUP1 SWAP2 SUB SWAP1 RETURN JUMPDEST CALLVALUE DUP1 ISZERO PUSH2 0x43F JUMPI PUSH1 0x0 DUP1 REVERT JUMPDEST POP PUSH2 0x448 PUSH2 0xFA6 JUMP JUMPDEST PUSH1 0x40 MLOAD DUP1 DUP3 PUSH20 0xFFFFFFFFFFFFFFFFFFFFFFFFFFFFFFFFFFFFFFFF AND PUSH20 0xFFFFFFFFFFFFFFFFFFFFFFFFFFFFFFFFFFFFFFFF AND DUP2 MSTORE PUSH1 0x20 ADD SWAP2 POP POP PUSH1 0x40 MLOAD DUP1 SWAP2 SUB SWAP1 RETURN JUMPDEST CALLVALUE DUP1 ISZERO PUSH2 0x496 JUMPI PUSH1 0x0 DUP1 REVERT JUMPDEST POP PUSH2 0x49F PUSH2 0xFCB JUMP JUMPDEST PUSH1 0x40 MLOAD DUP1 DUP3 PUSH1 0xFF AND PUSH1 0xFF AND DUP2 MSTORE PUSH1 0x20 ADD SWAP2 POP POP PUSH1 0x40 MLOAD DUP1 SWAP2 SUB SWAP1 RETURN JUMPDEST CALLVALUE DUP1 ISZERO PUSH2 0x4C7 JUMPI PUSH1 0x0 DUP1 REVERT JUMPDEST POP PUSH2 0x4FF PUSH1 0x4 DUP1 CALLDATASIZE SUB DUP2 ADD SWAP1 DUP1 DUP1 PUSH2 0x140 ADD SWAP1 SWAP2 SWAP3 SWAP2 SWAP3 SWAP1 DUP1 PUSH2 0x160 ADD SWAP1 SWAP2 SWAP3 SWAP2 SWAP3 SWAP1 DUP1 CALLDATALOAD PUSH1 0xFF AND SWAP1 PUSH1 0x20 ADD SWAP1 SWAP3 SWAP2 SWAP1 POP POP POP PUSH2 0xFE2 JUMP JUMPDEST STOP JUMPDEST CALLVALUE DUP1 ISZERO PUSH2 0x50D JUMPI PUSH1 0x0 DUP1 REVERT JUMPDEST POP PUSH2 0x516 PUSH2 0x10EA JUMP JUMPDEST PUSH1 0x40 MLOAD DUP1 DUP3 PUSH1 0xA PUSH1 0x20 MUL DUP1 DUP4 DUP4 PUSH1 0x0 JUMPDEST DUP4 DUP2 LT ISZERO PUSH2 0x541 JUMPI DUP1 DUP3 ADD MLOAD DUP2 DUP5 ADD MSTORE PUSH1 0x20 DUP2 ADD SWAP1 POP PUSH2 0x526 JUMP JUMPDEST POP POP POP POP SWAP1 POP ADD SWAP2 POP POP PUSH1 0x40 MLOAD DUP1 SWAP2 SUB SWAP1 RETURN JUMPDEST CALLVALUE DUP1 ISZERO PUSH2 0x560 JUMPI PUSH1 0x0 DUP1 REVERT JUMPDEST POP PUSH2 0x569 PUSH2 0x115B JUMP JUMPDEST PUSH1 0x40 MLOAD DUP1 DUP3 PUSH1 0xB PUSH1 0x20 MUL DUP1 DUP4 DUP4 PUSH1 0x0 JUMPDEST DUP4 DUP2 LT ISZERO PUSH2 0x594 JUMPI DUP1 DUP3 ADD MLOAD DUP2 DUP5 ADD MSTORE PUSH1 0x20 DUP2 ADD SWAP1 POP PUSH2 0x579 JUMP JUMPDEST POP POP POP POP SWAP1 POP ADD SWAP2 POP POP PUSH1 0x40 MLOAD DUP1 SWAP2 SUB SWAP1 RETURN JUMPDEST CALLVALUE DUP1 ISZERO PUSH2 0x5B3 JUMPI PUSH1 0x0 DUP1 REVERT JUMPDEST POP PUSH2 0x5BC PUSH2 0x11CE JUMP JUMPDEST PUSH1 0x40 MLOAD DUP1 DUP1 PUSH1 0x20 ADD DUP3 DUP2 SUB DUP3 MSTORE DUP4 DUP2 DUP2 MLOAD DUP2 MSTORE PUSH1 0x20 ADD SWAP2 POP DUP1 MLOAD SWAP1 PUSH1 0x20 ADD SWAP1 PUSH1 0x20 MUL DUP1 DUP4 DUP4 PUSH1 0x0 JUMPDEST DUP4 DUP2 LT ISZERO PUSH2 0x5FF JUMPI DUP1 DUP3 ADD MLOAD DUP2 DUP5 ADD MSTORE PUSH1 0x20 DUP2 ADD SWAP1 POP PUSH2 0x5E4 JUMP JUMPDEST POP POP POP POP SWAP1 POP ADD SWAP3 POP POP POP PUSH1 0x40 MLOAD DUP1 SWAP2 SUB SWAP1 RETURN JUMPDEST CALLVALUE DUP1 ISZERO PUSH2 0x61F JUMPI PUSH1 0x0 DUP1 REVERT JUMPDEST POP PUSH2 0x63F PUSH1 0x4 DUP1 CALLDATASIZE SUB DUP2 ADD SWAP1 DUP1 DUP1 PUSH2 0x6E0 ADD SWAP1 SWAP2 SWAP3 SWAP2 SWAP3 SWAP1 POP POP POP PUSH2 0x125C JUMP JUMPDEST STOP JUMPDEST CALLVALUE DUP1 ISZERO PUSH2 0x64D JUMPI PUSH1 0x0 DUP1 REVERT JUMPDEST POP PUSH2 0x656 PUSH2 0x1335 JUMP JUMPDEST PUSH1 0x40 MLOAD DUP1 DUP3 PUSH1 0x63 PUSH1 0x20 MUL DUP1 DUP4 DUP4 PUSH1 0x0 JUMPDEST DUP4 DUP2 LT ISZERO PUSH2 0x681 JUMPI DUP1 DUP3 ADD MLOAD DUP2 DUP5 ADD MSTORE PUSH1 0x20 DUP2 ADD SWAP1 POP PUSH2 0x666 JUMP JUMPDEST POP POP POP POP SWAP1 POP ADD SWAP2 POP POP PUSH1 0x40 MLOAD DUP1 SWAP2 SUB SWAP1 RETURN JUMPDEST CALLVALUE DUP1 ISZERO PUSH2 0x6A0 JUMPI PUSH1 0x0 DUP1 REVERT JUMPDEST POP PUSH2 0x6C2 PUSH1 0x4 DUP1 CALLDATASIZE SUB DUP2 ADD SWAP1 DUP1 DUP1 CALLDATALOAD PUSH1 0xFF AND SWAP1 PUSH1 0x20 ADD SWAP1 SWAP3 SWAP2 SWAP1 POP POP POP PUSH2 0x13A6 JUMP JUMPDEST PUSH1 0x40 MLOAD DUP1 DUP3 PUSH2 0xFFFF AND PUSH2 0xFFFF AND DUP2 MSTORE PUSH1 0x20 ADD SWAP2 POP POP PUSH1 0x40 MLOAD DUP1 SWAP2 SUB SWAP1 RETURN JUMPDEST CALLVALUE DUP1 ISZERO PUSH2 0x6EC JUMPI PUSH1 0x0 DUP1 REVERT JUMPDEST POP PUSH2 0x70C PUSH1 0x4 DUP1 CALLDATASIZE SUB DUP2 ADD SWAP1 DUP1 DUP1 PUSH2 0x640 ADD SWAP1 SWAP2 SWAP3 SWAP2 SWAP3 SWAP1 POP POP POP PUSH2 0x13DB JUMP JUMPDEST STOP JUMPDEST CALLVALUE DUP1 ISZERO PUSH2 0x71A JUMPI PUSH1 0x0 DUP1 REVERT JUMPDEST POP PUSH2 0x723 PUSH2 0x14B4 JUMP JUMPDEST PUSH1 0x40 MLOAD DUP1 DUP1 PUSH1 0x20 ADD DUP3 DUP2 SUB DUP3 MSTORE DUP4 DUP2 DUP2 MLOAD DUP2 MSTORE PUSH1 0x20 ADD SWAP2 POP DUP1 MLOAD SWAP1 PUSH1 0x20 ADD SWAP1 PUSH1 0x20 MUL DUP1 DUP4 DUP4 PUSH1 0x0 JUMPDEST DUP4 DUP2 LT ISZERO PUSH2 0x766 JUMPI DUP1 DUP3 ADD MLOAD DUP2 DUP5 ADD MSTORE PUSH1 0x20 DUP2 ADD SWAP1 POP PUSH2 0x74B JUMP JUMPDEST POP POP POP POP SWAP1 POP ADD SWAP3 POP POP POP PUSH1 0x40 MLOAD DUP1 SWAP2 SUB SWAP1 RETURN JUMPDEST CALLVALUE DUP1 ISZERO PUSH2 0x786 JUMPI PUSH1 0x0 DUP1 REVERT JUMPDEST POP PUSH2 0x78F PUSH2 0x1542 JUMP JUMPDEST PUSH1 0x40 MLOAD DUP1 DUP3 PUSH1 0x32 PUSH1 0x20 MUL DUP1 DUP4 DUP4 PUSH1 0x0 JUMPDEST DUP4 DUP2 LT ISZERO PUSH2 0x7BA JUMPI DUP1 DUP3 ADD MLOAD DUP2 DUP5 ADD MSTORE PUSH1 0x20 DUP2 ADD SWAP1 POP PUSH2 0x79F JUMP JUMPDEST POP POP POP POP SWAP1 POP ADD SWAP2 POP POP PUSH1 0x40 MLOAD DUP1 SWAP2 SUB SWAP1 RETURN JUMPDEST CALLVALUE DUP1 ISZERO PUSH2 0x7D9 JUMPI PUSH1 0x0 DUP1 REVERT JUMPDEST POP PUSH2 0x7FB PUSH1 0x4 DUP1 CALLDATASIZE SUB DUP2 ADD SWAP1 DUP1 DUP1 CALLDATALOAD PUSH1 0xFF AND SWAP1 PUSH1 0x20 ADD SWAP1 SWAP3 SWAP2 SWAP1 POP POP POP PUSH2 0x15F0 JUMP JUMPDEST PUSH1 0x40 MLOAD DUP1 DUP3 PUSH1 0x5 PUSH1 0x20 MUL DUP1 DUP4 DUP4 PUSH1 0x0 JUMPDEST DUP4 DUP2 LT ISZERO PUSH2 0x826 JUMPI DUP1 DUP3 ADD MLOAD DUP2 DUP5 ADD MSTORE PUSH1 0x20 DUP2 ADD SWAP1 POP PUSH2 0x80B JUMP JUMPDEST POP POP POP POP SWAP1 POP ADD SWAP2 POP POP PUSH1 0x40 MLOAD DUP1 SWAP2 SUB SWAP1 RETURN JUMPDEST CALLVALUE DUP1 ISZERO PUSH2 0x845 JUMPI PUSH1 0x0 DUP1 REVERT JUMPDEST POP PUSH2 0x87A PUSH1 0x4 DUP1 CALLDATASIZE SUB DUP2 ADD SWAP1 DUP1 DUP1 CALLDATALOAD PUSH20 0xFFFFFFFFFFFFFFFFFFFFFFFFFFFFFFFFFFFFFFFF AND SWAP1 PUSH1 0x20 ADD SWAP1 SWAP3 SWAP2 SWAP1 POP POP POP PUSH2 0x1674 JUMP JUMPDEST STOP JUMPDEST CALLVALUE DUP1 ISZERO PUSH2 0x888 JUMPI PUSH1 0x0 DUP1 REVERT JUMPDEST POP PUSH2 0x8AA PUSH1 0x4 DUP1 CALLDATASIZE SUB DUP2 ADD SWAP1 DUP1 DUP1 CALLDATALOAD PUSH1 0xFF AND SWAP1 PUSH1 0x20 ADD SWAP1 SWAP3 SWAP2 SWAP1 POP POP POP PUSH2 0x17FF JUMP JUMPDEST PUSH1 0x40 MLOAD DUP1 DUP3 PUSH1 0xFF AND PUSH1 0xFF AND DUP2 MSTORE PUSH1 0x20 ADD SWAP2 POP POP PUSH1 0x40 MLOAD DUP1 SWAP2 SUB SWAP1 RETURN JUMPDEST PUSH1 0x0 DUP1 SWAP1 SLOAD SWAP1 PUSH2 0x100 EXP SWAP1 DIV PUSH20 0xFFFFFFFFFFFFFFFFFFFFFFFFFFFFFFFFFFFFFFFF AND PUSH20 0xFFFFFFFFFFFFFFFFFFFFFFFFFFFFFFFFFFFFFFFF AND CALLER PUSH20 0xFFFFFFFFFFFFFFFFFFFFFFFFFFFFFFFFFFFFFFFF AND EQ ISZERO ISZERO PUSH2 0x98A JUMPI PUSH1 0x40 MLOAD PUSH32 0x8C379A000000000000000000000000000000000000000000000000000000000 DUP2 MSTORE PUSH1 0x4 ADD DUP1 DUP1 PUSH1 0x20 ADD DUP3 DUP2 SUB DUP3 MSTORE PUSH1 0x14 DUP2 MSTORE PUSH1 0x20 ADD DUP1 PUSH32 0x6E6F74206120636F6E7472616374206F776E6572000000000000000000000000 DUP2 MSTORE POP PUSH1 0x20 ADD SWAP2 POP POP PUSH1 0x40 MLOAD DUP1 SWAP2 SUB SWAP1 REVERT JUMPDEST DUP1 PUSH1 0x26 SWAP1 PUSH1 0x63 PUSH2 0x99B SWAP3 SWAP2 SWAP1 PUSH2 0x1A2C JUMP JUMPDEST POP POP JUMP JUMPDEST PUSH2 0x9A7 PUSH2 0x1AC9 JUMP JUMPDEST PUSH1 0x4 DUP3 PUSH1 0xFF AND PUSH1 0xB DUP2 LT ISZERO ISZERO PUSH2 0x9B9 JUMPI INVALID JUMPDEST ADD PUSH1 0x5 DUP1 PUSH1 0x20 MUL PUSH1 0x40 MLOAD SWAP1 DUP2 ADD PUSH1 0x40 MSTORE DUP1 SWAP3 SWAP2 SWAP1 DUP3 PUSH1 0x5 DUP1 ISZERO PUSH2 0xA17 JUMPI PUSH1 0x20 MUL DUP3 ADD SWAP2 PUSH1 0x0 SWAP1 JUMPDEST DUP3 DUP3 SWAP1 SLOAD SWAP1 PUSH2 0x100 EXP SWAP1 DIV PUSH1 0xFF AND PUSH1 0xFF AND DUP2 MSTORE PUSH1 0x20 ADD SWAP1 PUSH1 0x1 ADD SWAP1 PUSH1 0x20 DUP3 PUSH1 0x0 ADD DIV SWAP3 DUP4 ADD SWAP3 PUSH1 0x1 SUB DUP3 MUL SWAP2 POP DUP1 DUP5 GT PUSH2 0x9E0 JUMPI SWAP1 POP JUMPDEST POP POP POP POP POP SWAP1 POP SWAP2 SWAP1 POP JUMP JUMPDEST PUSH2 0xA2B PUSH2 0x1AC9 JUMP JUMPDEST PUSH1 0x19 DUP3 PUSH1 0xFF AND PUSH1 0xA DUP2 LT ISZERO ISZERO PUSH2 0xA3D JUMPI INVALID JUMPDEST ADD PUSH1 0x5 DUP1 PUSH1 0x20 MUL PUSH1 0x40 MLOAD SWAP1 DUP2 ADD PUSH1 0x40 MSTORE DUP1 SWAP3 SWAP2 SWAP1 DUP3 PUSH1 0x5 DUP1 ISZERO PUSH2 0xA9B JUMPI PUSH1 0x20 MUL DUP3 ADD SWAP2 PUSH1 0x0 SWAP1 JUMPDEST DUP3 DUP3 SWAP1 SLOAD SWAP1 PUSH2 0x100 EXP SWAP1 DIV PUSH1 0xFF AND PUSH1 0xFF AND DUP2 MSTORE PUSH1 0x20 ADD SWAP1 PUSH1 0x1 ADD SWAP1 PUSH1 0x20 DUP3 PUSH1 0x0 ADD DIV SWAP3 DUP4 ADD SWAP3 PUSH1 0x1 SUB DUP3 MUL SWAP2 POP DUP1 DUP5 GT PUSH2 0xA64 JUMPI SWAP1 POP JUMPDEST POP POP POP POP POP SWAP1 POP SWAP2 SWAP1 POP JUMP JUMPDEST PUSH1 0x0 PUSH1 0x23 DUP3 PUSH1 0xFF AND PUSH1 0xA DUP2 LT ISZERO ISZERO PUSH2 0xABB JUMPI INVALID JUMPDEST PUSH1 0x20 SWAP2 DUP3 DUP3 DIV ADD SWAP2 SWAP1 MOD SWAP1 SLOAD SWAP1 PUSH2 0x100 EXP SWAP1 DIV PUSH1 0xFF AND SWAP1 POP SWAP2 SWAP1 POP JUMP JUMPDEST PUSH2 0xAE0 PUSH2 0x1AEC JUMP JUMPDEST PUSH1 0x0 DUP1 PUSH1 0x0 DUP1 SWAP2 POP JUMPDEST PUSH1 0xB DUP3 PUSH1 0xFF AND LT ISZERO PUSH2 0xB83 JUMPI PUSH1 0x0 SWAP1 POP JUMPDEST PUSH1 0x5 DUP2 PUSH1 0xFF AND LT ISZERO PUSH2 0xB76 JUMPI PUSH1 0x4 DUP3 PUSH1 0xFF AND PUSH1 0xB DUP2 LT ISZERO ISZERO PUSH2 0xB18 JUMPI INVALID JUMPDEST ADD DUP2 PUSH1 0xFF AND PUSH1 0x5 DUP2 LT ISZERO ISZERO PUSH2 0xB29 JUMPI INVALID JUMPDEST PUSH1 0x20 SWAP2 DUP3 DUP3 DIV ADD SWAP2 SWAP1 MOD SWAP1 SLOAD SWAP1 PUSH2 0x100 EXP SWAP1 DIV PUSH1 0xFF AND DUP5 DUP5 PUSH1 0xFF AND PUSH1 0x37 DUP2 LT ISZERO ISZERO PUSH2 0xB50 JUMPI INVALID JUMPDEST PUSH1 0x20 MUL ADD SWAP1 PUSH1 0xFF AND SWAP1 DUP2 PUSH1 0xFF AND DUP2 MSTORE POP POP DUP3 DUP1 PUSH1 0x1 ADD SWAP4 POP POP DUP1 DUP1 PUSH1 0x1 ADD SWAP2 POP POP PUSH2 0xAFA JUMP JUMPDEST DUP2 DUP1 PUSH1 0x1 ADD SWAP3 POP POP PUSH2 0xAE9 JUMP JUMPDEST POP POP POP SWAP1 JUMP JUMPDEST PUSH1 0x0 DUP1 SWAP1 SLOAD SWAP1 PUSH2 0x100 EXP SWAP1 DIV PUSH20 0xFFFFFFFFFFFFFFFFFFFFFFFFFFFFFFFFFFFFFFFF AND PUSH20 0xFFFFFFFFFFFFFFFFFFFFFFFFFFFFFFFFFFFFFFFF AND CALLER PUSH20 0xFFFFFFFFFFFFFFFFFFFFFFFFFFFFFFFFFFFFFFFF AND EQ ISZERO ISZERO PUSH2 0xC4D JUMPI PUSH1 0x40 MLOAD PUSH32 0x8C379A000000000000000000000000000000000000000000000000000000000 DUP2 MSTORE PUSH1 0x4 ADD DUP1 DUP1 PUSH1 0x20 ADD DUP3 DUP2 SUB DUP3 MSTORE PUSH1 0x14 DUP2 MSTORE PUSH1 0x20 ADD DUP1 PUSH32 0x6E6F74206120636F6E7472616374206F776E6572000000000000000000000000 DUP2 MSTORE POP PUSH1 0x20 ADD SWAP2 POP POP PUSH1 0x40 MLOAD DUP1 SWAP2 SUB SWAP1 REVERT JUMPDEST PUSH2 0xCDE PUSH1 0x3 DUP1 SLOAD DUP1 PUSH1 0x20 MUL PUSH1 0x20 ADD PUSH1 0x40 MLOAD SWAP1 DUP2 ADD PUSH1 0x40 MSTORE DUP1 SWAP3 SWAP2 SWAP1 DUP2 DUP2 MSTORE PUSH1 0x20 ADD DUP3 DUP1 SLOAD DUP1 ISZERO PUSH2 0xCD2 JUMPI PUSH1 0x20 MUL DUP3 ADD SWAP2 SWAP1 PUSH1 0x0 MSTORE PUSH1 0x20 PUSH1 0x0 KECCAK256 SWAP1 JUMPDEST DUP2 PUSH1 0x0 SWAP1 SLOAD SWAP1 PUSH2 0x100 EXP SWAP1 DIV PUSH20 0xFFFFFFFFFFFFFFFFFFFFFFFFFFFFFFFFFFFFFFFF AND PUSH20 0xFFFFFFFFFFFFFFFFFFFFFFFFFFFFFFFFFFFFFFFF AND DUP2 MSTORE PUSH1 0x20 ADD SWAP1 PUSH1 0x1 ADD SWAP1 DUP1 DUP4 GT PUSH2 0xC88 JUMPI JUMPDEST POP POP POP POP POP PUSH1 0x0 PUSH2 0x1830 JUMP JUMPDEST DUP1 PUSH1 0x3 SWAP1 DUP1 MLOAD SWAP1 PUSH1 0x20 ADD SWAP1 PUSH2 0xCF4 SWAP3 SWAP2 SWAP1 PUSH2 0x1B10 JUMP JUMPDEST POP PUSH2 0xD00 DUP2 PUSH1 0x1 PUSH2 0x1830 JUMP JUMPDEST POP JUMP JUMPDEST PUSH1 0x0 DUP1 SWAP1 SLOAD SWAP1 PUSH2 0x100 EXP SWAP1 DIV PUSH20 0xFFFFFFFFFFFFFFFFFFFFFFFFFFFFFFFFFFFFFFFF AND PUSH20 0xFFFFFFFFFFFFFFFFFFFFFFFFFFFFFFFFFFFFFFFF AND CALLER PUSH20 0xFFFFFFFFFFFFFFFFFFFFFFFFFFFFFFFFFFFFFFFF AND EQ ISZERO ISZERO PUSH2 0xDC7 JUMPI PUSH1 0x40 MLOAD PUSH32 0x8C379A000000000000000000000000000000000000000000000000000000000 DUP2 MSTORE PUSH1 0x4 ADD DUP1 DUP1 PUSH1 0x20 ADD DUP3 DUP2 SUB DUP3 MSTORE PUSH1 0x14 DUP2 MSTORE PUSH1 0x20 ADD DUP1 PUSH32 0x6E6F74206120636F6E7472616374206F776E6572000000000000000000000000 DUP2 MSTORE POP PUSH1 0x20 ADD SWAP2 POP POP PUSH1 0x40 MLOAD DUP1 SWAP2 SUB SWAP1 REVERT JUMPDEST DUP1 PUSH1 0x19 SWAP1 PUSH1 0xA PUSH2 0xDD8 SWAP3 SWAP2 SWAP1 PUSH2 0x1B9A JUMP JUMPDEST POP POP JUMP JUMPDEST PUSH1 0x0 DUP1 PUSH1 0x0 SWAP1 SLOAD SWAP1 PUSH2 0x100 EXP SWAP1 DIV PUSH20 0xFFFFFFFFFFFFFFFFFFFFFFFFFFFFFFFFFFFFFFFF AND PUSH20 0xFFFFFFFFFFFFFFFFFFFFFFFFFFFFFFFFFFFFFFFF AND CALLER PUSH20 0xFFFFFFFFFFFFFFFFFFFFFFFFFFFFFFFFFFFFFFFF AND EQ ISZERO ISZERO PUSH2 0xEA2 JUMPI PUSH1 0x40 MLOAD PUSH32 0x8C379A000000000000000000000000000000000000000000000000000000000 DUP2 MSTORE PUSH1 0x4 ADD DUP1 DUP1 PUSH1 0x20 ADD DUP3 DUP2 SUB DUP3 MSTORE PUSH1 0x14 DUP2 MSTORE PUSH1 0x20 ADD DUP1 PUSH32 0x6E6F74206120636F6E7472616374206F776E6572000000000000000000000000 DUP2 MSTORE POP PUSH1 0x20 ADD SWAP2 POP POP PUSH1 0x40 MLOAD DUP1 SWAP2 SUB SWAP1 REVERT JUMPDEST PUSH1 0x0 SWAP1 POP JUMPDEST DUP2 MLOAD DUP2 LT ISZERO PUSH2 0xEDD JUMPI PUSH2 0xED0 DUP3 DUP3 DUP2 MLOAD DUP2 LT ISZERO ISZERO PUSH2 0xEC1 JUMPI INVALID JUMPDEST SWAP1 PUSH1 0x20 ADD SWAP1 PUSH1 0x20 MUL ADD MLOAD PUSH2 0x18DF JUMP JUMPDEST DUP1 DUP1 PUSH1 0x1 ADD SWAP2 POP POP PUSH2 0xEA7 JUMP JUMPDEST DUP2 PUSH1 0x2 SWAP1 DUP1 MLOAD SWAP1 PUSH1 0x20 ADD SWAP1 PUSH2 0xEF3 SWAP3 SWAP2 SWAP1 PUSH2 0x1B10 JUMP JUMPDEST POP POP POP JUMP JUMPDEST PUSH2 0xF00 PUSH2 0x1BE7 JUMP JUMPDEST PUSH2 0xFA1 PUSH1 0x19 PUSH1 0xA DUP1 PUSH1 0x20 MUL PUSH1 0x40 MLOAD SWAP1 DUP2 ADD PUSH1 0x40 MSTORE DUP1 SWAP3 SWAP2 SWAP1 PUSH1 0x0 SWAP1 JUMPDEST DUP3 DUP3 LT ISZERO PUSH2 0xF98 JUMPI DUP4 DUP3 ADD PUSH1 0x5 DUP1 PUSH1 0x20 MUL PUSH1 0x40 MLOAD SWAP1 DUP2 ADD PUSH1 0x40 MSTORE DUP1 SWAP3 SWAP2 SWAP1 DUP3 PUSH1 0x5 DUP1 ISZERO PUSH2 0xF84 JUMPI PUSH1 0x20 MUL DUP3 ADD SWAP2 PUSH1 0x0 SWAP1 JUMPDEST DUP3 DUP3 SWAP1 SLOAD SWAP1 PUSH2 0x100 EXP SWAP1 DIV PUSH1 0xFF AND PUSH1 0xFF AND DUP2 MSTORE PUSH1 0x20 ADD SWAP1 PUSH1 0x1 ADD SWAP1 PUSH1 0x20 DUP3 PUSH1 0x0 ADD DIV SWAP3 DUP4 ADD SWAP3 PUSH1 0x1 SUB DUP3 MUL SWAP2 POP DUP1 DUP5 GT PUSH2 0xF4D JUMPI SWAP1 POP JUMPDEST POP POP POP POP POP DUP2 MSTORE PUSH1 0x20 ADD SWAP1 PUSH1 0x1 ADD SWAP1 PUSH2 0xF1C JUMP JUMPDEST POP POP POP POP PUSH2 0x1987 JUMP JUMPDEST SWAP1 POP SWAP1 JUMP JUMPDEST PUSH1 0x0 DUP1 SWAP1 SLOAD SWAP1 PUSH2 0x100 EXP SWAP1 DIV PUSH20 0xFFFFFFFFFFFFFFFFFFFFFFFFFFFFFFFFFFFFFFFF AND DUP2 JUMP JUMPDEST PUSH1 0x0 PUSH1 0x25 PUSH1 0x0 SWAP1 SLOAD SWAP1 PUSH2 0x100 EXP SWAP1 DIV PUSH1 0xFF AND SWAP1 POP SWAP1 JUMP JUMPDEST PUSH1 0x0 DUP1 SWAP1 SLOAD SWAP1 PUSH2 0x100 EXP SWAP1 DIV PUSH20 0xFFFFFFFFFFFFFFFFFFFFFFFFFFFFFFFFFFFFFFFF AND PUSH20 0xFFFFFFFFFFFFFFFFFFFFFFFFFFFFFFFFFFFFFFFF AND CALLER PUSH20 0xFFFFFFFFFFFFFFFFFFFFFFFFFFFFFFFFFFFFFFFF AND EQ ISZERO ISZERO PUSH2 0x10A6 JUMPI PUSH1 0x40 MLOAD PUSH32 0x8C379A000000000000000000000000000000000000000000000000000000000 DUP2 MSTORE PUSH1 0x4 ADD DUP1 DUP1 PUSH1 0x20 ADD DUP3 DUP2 SUB DUP3 MSTORE PUSH1 0x14 DUP2 MSTORE PUSH1 0x20 ADD DUP1 PUSH32 0x6E6F74206120636F6E7472616374206F776E6572000000000000000000000000 DUP2 MSTORE POP PUSH1 0x20 ADD SWAP2 POP POP PUSH1 0x40 MLOAD DUP1 SWAP2 SUB SWAP1 REVERT JUMPDEST DUP3 PUSH1 0x23 SWAP1 PUSH1 0xA PUSH2 0x10B7 SWAP3 SWAP2 SWAP1 PUSH2 0x1C0B JUMP JUMPDEST POP DUP2 PUSH1 0x24 SWAP1 PUSH1 0xB PUSH2 0x10C9 SWAP3 SWAP2 SWAP1 PUSH2 0x1CA8 JUMP JUMPDEST POP DUP1 PUSH1 0x25 PUSH1 0x0 PUSH2 0x100 EXP DUP2 SLOAD DUP2 PUSH1 0xFF MUL NOT AND SWAP1 DUP4 PUSH1 0xFF AND MUL OR SWAP1 SSTORE POP POP POP POP JUMP JUMPDEST PUSH2 0x10F2 PUSH2 0x1D49 JUMP JUMPDEST PUSH1 0x23 PUSH1 0xA DUP1 PUSH1 0x20 MUL PUSH1 0x40 MLOAD SWAP1 DUP2 ADD PUSH1 0x40 MSTORE DUP1 SWAP3 SWAP2 SWAP1 DUP3 PUSH1 0xA DUP1 ISZERO PUSH2 0x1151 JUMPI PUSH1 0x20 MUL DUP3 ADD SWAP2 PUSH1 0x0 SWAP1 JUMPDEST DUP3 DUP3 SWAP1 SLOAD SWAP1 PUSH2 0x100 EXP SWAP1 DIV PUSH1 0xFF AND PUSH1 0xFF AND DUP2 MSTORE PUSH1 0x20 ADD SWAP1 PUSH1 0x1 ADD SWAP1 PUSH1 0x20 DUP3 PUSH1 0x0 ADD DIV SWAP3 DUP4 ADD SWAP3 PUSH1 0x1 SUB DUP3 MUL SWAP2 POP DUP1 DUP5 GT PUSH2 0x111A JUMPI SWAP1 POP JUMPDEST POP POP POP POP POP SWAP1 POP SWAP1 JUMP JUMPDEST PUSH2 0x1163 PUSH2 0x1D6D JUMP JUMPDEST PUSH1 0x24 PUSH1 0xB DUP1 PUSH1 0x20 MUL PUSH1 0x40 MLOAD SWAP1 DUP2 ADD PUSH1 0x40 MSTORE DUP1 SWAP3 SWAP2 SWAP1 DUP3 PUSH1 0xB DUP1 ISZERO PUSH2 0x11C4 JUMPI PUSH1 0x20 MUL DUP3 ADD SWAP2 PUSH1 0x0 SWAP1 JUMPDEST DUP3 DUP3 SWAP1 SLOAD SWAP1 PUSH2 0x100 EXP SWAP1 DIV PUSH2 0xFFFF AND PUSH2 0xFFFF AND DUP2 MSTORE PUSH1 0x20 ADD SWAP1 PUSH1 0x2 ADD SWAP1 PUSH1 0x20 DUP3 PUSH1 0x1 ADD DIV SWAP3 DUP4 ADD SWAP3 PUSH1 0x1 SUB DUP3 MUL SWAP2 POP DUP1 DUP5 GT PUSH2 0x118B JUMPI SWAP1 POP JUMPDEST POP POP POP POP POP SWAP1 POP SWAP1 JUMP JUMPDEST PUSH1 0x60 PUSH1 0x2 DUP1 SLOAD DUP1 PUSH1 0x20 MUL PUSH1 0x20 ADD PUSH1 0x40 MLOAD SWAP1 DUP2 ADD PUSH1 0x40 MSTORE DUP1 SWAP3 SWAP2 SWAP1 DUP2 DUP2 MSTORE PUSH1 0x20 ADD DUP3 DUP1 SLOAD DUP1 ISZERO PUSH2 0x1252 JUMPI PUSH1 0x20 MUL DUP3 ADD SWAP2 SWAP1 PUSH1 0x0 MSTORE PUSH1 0x20 PUSH1 0x0 KECCAK256 SWAP1 JUMPDEST DUP2 PUSH1 0x0 SWAP1 SLOAD SWAP1 PUSH2 0x100 EXP SWAP1 DIV PUSH20 0xFFFFFFFFFFFFFFFFFFFFFFFFFFFFFFFFFFFFFFFF AND PUSH20 0xFFFFFFFFFFFFFFFFFFFFFFFFFFFFFFFFFFFFFFFF AND DUP2 MSTORE PUSH1 0x20 ADD SWAP1 PUSH1 0x1 ADD SWAP1 DUP1 DUP4 GT PUSH2 0x1208 JUMPI JUMPDEST POP POP POP POP POP SWAP1 POP SWAP1 JUMP JUMPDEST PUSH1 0x0 DUP1 SWAP1 SLOAD SWAP1 PUSH2 0x100 EXP SWAP1 DIV PUSH20 0xFFFFFFFFFFFFFFFFFFFFFFFFFFFFFFFFFFFFFFFF AND PUSH20 0xFFFFFFFFFFFFFFFFFFFFFFFFFFFFFFFFFFFFFFFF AND CALLER PUSH20 0xFFFFFFFFFFFFFFFFFFFFFFFFFFFFFFFFFFFFFFFF AND EQ ISZERO ISZERO PUSH2 0x1320 JUMPI PUSH1 0x40 MLOAD PUSH32 0x8C379A000000000000000000000000000000000000000000000000000000000 DUP2 MSTORE PUSH1 0x4 ADD DUP1 DUP1 PUSH1 0x20 ADD DUP3 DUP2 SUB DUP3 MSTORE PUSH1 0x14 DUP2 MSTORE PUSH1 0x20 ADD DUP1 PUSH32 0x6E6F74206120636F6E7472616374206F776E6572000000000000000000000000 DUP2 MSTORE POP PUSH1 0x20 ADD SWAP2 POP POP PUSH1 0x40 MLOAD DUP1 SWAP2 SUB SWAP1 REVERT JUMPDEST DUP1 PUSH1 0x4 SWAP1 PUSH1 0xB PUSH2 0x1331 SWAP3 SWAP2 SWAP1 PUSH2 0x1D91 JUMP JUMPDEST POP POP JUMP JUMPDEST PUSH2 0x133D PUSH2 0x1DDE JUMP JUMPDEST PUSH1 0x26 PUSH1 0x63 DUP1 PUSH1 0x20 MUL PUSH1 0x40 MLOAD SWAP1 DUP2 ADD PUSH1 0x40 MSTORE DUP1 SWAP3 SWAP2 SWAP1 DUP3 PUSH1 0x63 DUP1 ISZERO PUSH2 0x139C JUMPI PUSH1 0x20 MUL DUP3 ADD SWAP2 PUSH1 0x0 SWAP1 JUMPDEST DUP3 DUP3 SWAP1 SLOAD SWAP1 PUSH2 0x100 EXP SWAP1 DIV PUSH1 0xFF AND PUSH1 0xFF AND DUP2 MSTORE PUSH1 0x20 ADD SWAP1 PUSH1 0x1 ADD SWAP1 PUSH1 0x20 DUP3 PUSH1 0x0 ADD DIV SWAP3 DUP4 ADD SWAP3 PUSH1 0x1 SUB DUP3 MUL SWAP2 POP DUP1 DUP5 GT PUSH2 0x1365 JUMPI SWAP1 POP JUMPDEST POP POP POP POP POP SWAP1 POP SWAP1 JUMP JUMPDEST PUSH1 0x0 PUSH1 0x24 DUP3 PUSH1 0xFF AND PUSH1 0xB DUP2 LT ISZERO ISZERO PUSH2 0x13BA JUMPI INVALID JUMPDEST PUSH1 0x10 SWAP2 DUP3 DUP3 DIV ADD SWAP2 SWAP1 MOD PUSH1 0x2 MUL SWAP1 SLOAD SWAP1 PUSH2 0x100 EXP SWAP1 DIV PUSH2 0xFFFF AND SWAP1 POP SWAP2 SWAP1 POP JUMP JUMPDEST PUSH1 0x0 DUP1 SWAP1 SLOAD SWAP1 PUSH2 0x100 EXP SWAP1 DIV PUSH20 0xFFFFFFFFFFFFFFFFFFFFFFFFFFFFFFFFFFFFFFFF AND PUSH20 0xFFFFFFFFFFFFFFFFFFFFFFFFFFFFFFFFFFFFFFFF AND CALLER PUSH20 0xFFFFFFFFFFFFFFFFFFFFFFFFFFFFFFFFFFFFFFFF AND EQ ISZERO ISZERO PUSH2 0x149F JUMPI PUSH1 0x40 MLOAD PUSH32 0x8C379A000000000000000000000000000000000000000000000000000000000 DUP2 MSTORE PUSH1 0x4 ADD DUP1 DUP1 PUSH1 0x20 ADD DUP3 DUP2 SUB DUP3 MSTORE PUSH1 0x14 DUP2 MSTORE PUSH1 0x20 ADD DUP1 PUSH32 0x6E6F74206120636F6E7472616374206F776E6572000000000000000000000000 DUP2 MSTORE POP PUSH1 0x20 ADD SWAP2 POP POP PUSH1 0x40 MLOAD DUP1 SWAP2 SUB SWAP1 REVERT JUMPDEST DUP1 PUSH1 0xF SWAP1 PUSH1 0xA PUSH2 0x14B0 SWAP3 SWAP2 SWAP1 PUSH2 0x1B9A JUMP JUMPDEST POP POP JUMP JUMPDEST PUSH1 0x60 PUSH1 0x3 DUP1 SLOAD DUP1 PUSH1 0x20 MUL PUSH1 0x20 ADD PUSH1 0x40 MLOAD SWAP1 DUP2 ADD PUSH1 0x40 MSTORE DUP1 SWAP3 SWAP2 SWAP1 DUP2 DUP2 MSTORE PUSH1 0x20 ADD DUP3 DUP1 SLOAD DUP1 ISZERO PUSH2 0x1538 JUMPI PUSH1 0x20 MUL DUP3 ADD SWAP2 SWAP1 PUSH1 0x0 MSTORE PUSH1 0x20 PUSH1 0x0 KECCAK256 SWAP1 JUMPDEST DUP2 PUSH1 0x0 SWAP1 SLOAD SWAP1 PUSH2 0x100 EXP SWAP1 DIV PUSH20 0xFFFFFFFFFFFFFFFFFFFFFFFFFFFFFFFFFFFFFFFF AND PUSH20 0xFFFFFFFFFFFFFFFFFFFFFFFFFFFFFFFFFFFFFFFF AND DUP2 MSTORE PUSH1 0x20 ADD SWAP1 PUSH1 0x1 ADD SWAP1 DUP1 DUP4 GT PUSH2 0x14EE JUMPI JUMPDEST POP POP POP POP POP SWAP1 POP SWAP1 JUMP JUMPDEST PUSH2 0x154A PUSH2 0x1BE7 JUMP JUMPDEST PUSH2 0x15EB PUSH1 0xF PUSH1 0xA DUP1 PUSH1 0x20 MUL PUSH1 0x40 MLOAD SWAP1 DUP2 ADD PUSH1 0x40 MSTORE DUP1 SWAP3 SWAP2 SWAP1 PUSH1 0x0 SWAP1 JUMPDEST DUP3 DUP3 LT ISZERO PUSH2 0x15E2 JUMPI DUP4 DUP3 ADD PUSH1 0x5 DUP1 PUSH1 0x20 MUL PUSH1 0x40 MLOAD SWAP1 DUP2 ADD PUSH1 0x40 MSTORE DUP1 SWAP3 SWAP2 SWAP1 DUP3 PUSH1 0x5 DUP1 ISZERO PUSH2 0x15CE JUMPI PUSH1 0x20 MUL DUP3 ADD SWAP2 PUSH1 0x0 SWAP1 JUMPDEST DUP3 DUP3 SWAP1 SLOAD SWAP1 PUSH2 0x100 EXP SWAP1 DIV PUSH1 0xFF AND PUSH1 0xFF AND DUP2 MSTORE PUSH1 0x20 ADD SWAP1 PUSH1 0x1 ADD SWAP1 PUSH1 0x20 DUP3 PUSH1 0x0 ADD DIV SWAP3 DUP4 ADD SWAP3 PUSH1 0x1 SUB DUP3 MUL SWAP2 POP DUP1 DUP5 GT PUSH2 0x1597 JUMPI SWAP1 POP JUMPDEST POP POP POP POP POP DUP2 MSTORE PUSH1 0x20 ADD SWAP1 PUSH1 0x1 ADD SWAP1 PUSH2 0x1566 JUMP JUMPDEST POP POP POP POP PUSH2 0x1987 JUMP JUMPDEST SWAP1 POP SWAP1 JUMP JUMPDEST PUSH2 0x15F8 PUSH2 0x1AC9 JUMP JUMPDEST PUSH1 0xF DUP3 PUSH1 0xFF AND PUSH1 0xA DUP2 LT ISZERO ISZERO PUSH2 0x160A JUMPI INVALID JUMPDEST ADD PUSH1 0x5 DUP1 PUSH1 0x20 MUL PUSH1 0x40 MLOAD SWAP1 DUP2 ADD PUSH1 0x40 MSTORE DUP1 SWAP3 SWAP2 SWAP1 DUP3 PUSH1 0x5 DUP1 ISZERO PUSH2 0x1668 JUMPI PUSH1 0x20 MUL DUP3 ADD SWAP2 PUSH1 0x0 SWAP1 JUMPDEST DUP3 DUP3 SWAP1 SLOAD SWAP1 PUSH2 0x100 EXP SWAP1 DIV PUSH1 0xFF AND PUSH1 0xFF AND DUP2 MSTORE PUSH1 0x20 ADD SWAP1 PUSH1 0x1 ADD SWAP1 PUSH1 0x20 DUP3 PUSH1 0x0 ADD DIV SWAP3 DUP4 ADD SWAP3 PUSH1 0x1 SUB DUP3 MUL SWAP2 POP DUP1 DUP5 GT PUSH2 0x1631 JUMPI SWAP1 POP JUMPDEST POP POP POP POP POP SWAP1 POP SWAP2 SWAP1 POP JUMP JUMPDEST PUSH1 0x0 DUP1 SWAP1 SLOAD SWAP1 PUSH2 0x100 EXP SWAP1 DIV PUSH20 0xFFFFFFFFFFFFFFFFFFFFFFFFFFFFFFFFFFFFFFFF AND PUSH20 0xFFFFFFFFFFFFFFFFFFFFFFFFFFFFFFFFFFFFFFFF AND CALLER PUSH20 0xFFFFFFFFFFFFFFFFFFFFFFFFFFFFFFFFFFFFFFFF AND EQ ISZERO ISZERO PUSH2 0x1738 JUMPI PUSH1 0x40 MLOAD PUSH32 0x8C379A000000000000000000000000000000000000000000000000000000000 DUP2 MSTORE PUSH1 0x4 ADD DUP1 DUP1 PUSH1 0x20 ADD DUP3 DUP2 SUB DUP3 MSTORE PUSH1 0x14 DUP2 MSTORE PUSH1 0x20 ADD DUP1 PUSH32 0x6E6F74206120636F6E7472616374206F776E6572000000000000000000000000 DUP2 MSTORE POP PUSH1 0x20 ADD SWAP2 POP POP PUSH1 0x40 MLOAD DUP1 SWAP2 SUB SWAP1 REVERT JUMPDEST PUSH2 0x1741 DUP2 PUSH2 0x18DF JUMP JUMPDEST DUP1 PUSH20 0xFFFFFFFFFFFFFFFFFFFFFFFFFFFFFFFFFFFFFFFF AND PUSH1 0x0 DUP1 SWAP1 SLOAD SWAP1 PUSH2 0x100 EXP SWAP1 DIV PUSH20 0xFFFFFFFFFFFFFFFFFFFFFFFFFFFFFFFFFFFFFFFF AND PUSH20 0xFFFFFFFFFFFFFFFFFFFFFFFFFFFFFFFFFFFFFFFF AND PUSH32 0x8BE0079C531659141344CD1FD0A4F28419497F9722A3DAAFE3B4186F6B6457E0 PUSH1 0x40 MLOAD PUSH1 0x40 MLOAD DUP1 SWAP2 SUB SWAP1 LOG3 DUP1 PUSH1 0x0 DUP1 PUSH2 0x100 EXP DUP2 SLOAD DUP2 PUSH20 0xFFFFFFFFFFFFFFFFFFFFFFFFFFFFFFFFFFFFFFFF MUL NOT AND SWAP1 DUP4 PUSH20 0xFFFFFFFFFFFFFFFFFFFFFFFFFFFFFFFFFFFFFFFF AND MUL OR SWAP1 SSTORE POP POP JUMP JUMPDEST PUSH1 0x0 PUSH1 0x26 DUP3 PUSH1 0xFF AND PUSH1 0x63 DUP2 LT ISZERO ISZERO PUSH2 0x1813 JUMPI INVALID JUMPDEST PUSH1 0x20 SWAP2 DUP3 DUP3 DIV ADD SWAP2 SWAP1 MOD SWAP1 SLOAD SWAP1 PUSH2 0x100 EXP SWAP1 DIV PUSH1 0xFF AND SWAP1 POP SWAP2 SWAP1 POP JUMP JUMPDEST PUSH1 0x0 DUP1 SWAP1 POP JUMPDEST DUP3 MLOAD DUP2 LT ISZERO PUSH2 0x18DA JUMPI PUSH2 0x185F DUP4 DUP3 DUP2 MLOAD DUP2 LT ISZERO ISZERO PUSH2 0x1850 JUMPI INVALID JUMPDEST SWAP1 PUSH1 0x20 ADD SWAP1 PUSH1 0x20 MUL ADD MLOAD PUSH2 0x18DF JUMP JUMPDEST DUP2 PUSH1 0x1 PUSH1 0x0 DUP6 DUP5 DUP2 MLOAD DUP2 LT ISZERO ISZERO PUSH2 0x1872 JUMPI INVALID JUMPDEST SWAP1 PUSH1 0x20 ADD SWAP1 PUSH1 0x20 MUL ADD MLOAD PUSH20 0xFFFFFFFFFFFFFFFFFFFFFFFFFFFFFFFFFFFFFFFF AND PUSH20 0xFFFFFFFFFFFFFFFFFFFFFFFFFFFFFFFFFFFFFFFF AND DUP2 MSTORE PUSH1 0x20 ADD SWAP1 DUP2 MSTORE PUSH1 0x20 ADD PUSH1 0x0 KECCAK256 PUSH1 0x0 PUSH2 0x100 EXP DUP2 SLOAD DUP2 PUSH1 0xFF MUL NOT AND SWAP1 DUP4 ISZERO ISZERO MUL OR SWAP1 SSTORE POP DUP1 DUP1 PUSH1 0x1 ADD SWAP2 POP POP PUSH2 0x1836 JUMP JUMPDEST POP POP POP JUMP JUMPDEST PUSH1 0x0 PUSH20 0xFFFFFFFFFFFFFFFFFFFFFFFFFFFFFFFFFFFFFFFF AND DUP2 PUSH20 0xFFFFFFFFFFFFFFFFFFFFFFFFFFFFFFFFFFFFFFFF AND EQ ISZERO ISZERO ISZERO PUSH2 0x1984 JUMPI PUSH1 0x40 MLOAD PUSH32 0x8C379A000000000000000000000000000000000000000000000000000000000 DUP2 MSTORE PUSH1 0x4 ADD DUP1 DUP1 PUSH1 0x20 ADD DUP3 DUP2 SUB DUP3 MSTORE PUSH1 0xF DUP2 MSTORE PUSH1 0x20 ADD DUP1 PUSH32 0x696E76616C696420616464726573730000000000000000000000000000000000 DUP2 MSTORE POP PUSH1 0x20 ADD SWAP2 POP POP PUSH1 0x40 MLOAD DUP1 SWAP2 SUB SWAP1 REVERT JUMPDEST POP JUMP JUMPDEST PUSH2 0x198F PUSH2 0x1BE7 JUMP JUMPDEST PUSH1 0x0 DUP1 PUSH1 0x0 DUP1 SWAP2 POP JUMPDEST PUSH1 0xA DUP3 PUSH1 0xFF AND LT ISZERO PUSH2 0x1A24 JUMPI PUSH1 0x0 SWAP1 POP JUMPDEST PUSH1 0x5 DUP2 PUSH1 0xFF AND LT ISZERO PUSH2 0x1A17 JUMPI DUP5 DUP3 PUSH1 0xFF AND PUSH1 0xA DUP2 LT ISZERO ISZERO PUSH2 0x19C6 JUMPI INVALID JUMPDEST PUSH1 0x20 MUL ADD MLOAD DUP2 PUSH1 0xFF AND PUSH1 0x5 DUP2 LT ISZERO ISZERO PUSH2 0x19DB JUMPI INVALID JUMPDEST PUSH1 0x20 MUL ADD MLOAD DUP5 DUP5 PUSH1 0xFF AND PUSH1 0x32 DUP2 LT ISZERO ISZERO PUSH2 0x19F1 JUMPI INVALID JUMPDEST PUSH1 0x20 MUL ADD SWAP1 PUSH1 0xFF AND SWAP1 DUP2 PUSH1 0xFF AND DUP2 MSTORE POP POP DUP3 DUP1 PUSH1 0x1 ADD SWAP4 POP POP DUP1 DUP1 PUSH1 0x1 ADD SWAP2 POP POP PUSH2 0x19A9 JUMP JUMPDEST DUP2 DUP1 PUSH1 0x1 ADD SWAP3 POP POP PUSH2 0x1998 JUMP JUMPDEST POP POP POP SWAP2 SWAP1 POP JUMP JUMPDEST DUP3 PUSH1 0x63 PUSH1 0x1F ADD PUSH1 0x20 SWAP1 DIV DUP2 ADD SWAP3 DUP3 ISZERO PUSH2 0x1AB8 JUMPI SWAP2 PUSH1 0x20 MUL DUP3 ADD PUSH1 0x0 JUMPDEST DUP4 DUP3 GT ISZERO PUSH2 0x1A89 JUMPI DUP4 CALLDATALOAD PUSH1 0xFF AND DUP4 DUP3 PUSH2 0x100 EXP DUP2 SLOAD DUP2 PUSH1 0xFF MUL NOT AND SWAP1 DUP4 PUSH1 0xFF AND MUL OR SWAP1 SSTORE POP SWAP3 PUSH1 0x20 ADD SWAP3 PUSH1 0x1 ADD PUSH1 0x20 DUP2 PUSH1 0x0 ADD DIV SWAP3 DUP4 ADD SWAP3 PUSH1 0x1 SUB MUL PUSH2 0x1A48 JUMP JUMPDEST DUP1 ISZERO PUSH2 0x1AB6 JUMPI DUP3 DUP2 PUSH2 0x100 EXP DUP2 SLOAD SWAP1 PUSH1 0xFF MUL NOT AND SWAP1 SSTORE PUSH1 0x1 ADD PUSH1 0x20 DUP2 PUSH1 0x0 ADD DIV SWAP3 DUP4 ADD SWAP3 PUSH1 0x1 SUB MUL PUSH2 0x1A89 JUMP JUMPDEST POP JUMPDEST POP SWAP1 POP PUSH2 0x1AC5 SWAP2 SWAP1 PUSH2 0x1E02 JUMP JUMPDEST POP SWAP1 JUMP JUMPDEST PUSH1 0xA0 PUSH1 0x40 MLOAD SWAP1 DUP2 ADD PUSH1 0x40 MSTORE DUP1 PUSH1 0x5 SWAP1 PUSH1 0x20 DUP3 MUL DUP1 CODESIZE DUP4 CODECOPY DUP1 DUP3 ADD SWAP2 POP POP SWAP1 POP POP SWAP1 JUMP JUMPDEST PUSH2 0x6E0 PUSH1 0x40 MLOAD SWAP1 DUP2 ADD PUSH1 0x40 MSTORE DUP1 PUSH1 0x37 SWAP1 PUSH1 0x20 DUP3 MUL DUP1 CODESIZE DUP4 CODECOPY DUP1 DUP3 ADD SWAP2 POP POP SWAP1 POP POP SWAP1 JUMP JUMPDEST DUP3 DUP1 SLOAD DUP3 DUP3 SSTORE SWAP1 PUSH1 0x0 MSTORE PUSH1 0x20 PUSH1 0x0 KECCAK256 SWAP1 DUP2 ADD SWAP3 DUP3 ISZERO PUSH2 0x1B89 JUMPI SWAP2 PUSH1 0x20 MUL DUP3 ADD JUMPDEST DUP3 DUP2 GT ISZERO PUSH2 0x1B88 JUMPI DUP3 MLOAD DUP3 PUSH1 0x0 PUSH2 0x100 EXP DUP2 SLOAD DUP2 PUSH20 0xFFFFFFFFFFFFFFFFFFFFFFFFFFFFFFFFFFFFFFFF MUL NOT AND SWAP1 DUP4 PUSH20 0xFFFFFFFFFFFFFFFFFFFFFFFFFFFFFFFFFFFFFFFF AND MUL OR SWAP1 SSTORE POP SWAP2 PUSH1 0x20 ADD SWAP2 SWAP1 PUSH1 0x1 ADD SWAP1 PUSH2 0x1B30 JUMP JUMPDEST JUMPDEST POP SWAP1 POP PUSH2 0x1B96 SWAP2 SWAP1 PUSH2 0x1E32 JUMP JUMPDEST POP SWAP1 JUMP JUMPDEST DUP3 PUSH1 0xA DUP2 ADD SWAP3 DUP3 ISZERO PUSH2 0x1BD6 JUMPI SWAP2 PUSH1 0xA0 MUL DUP3 ADD JUMPDEST DUP3 DUP2 GT ISZERO PUSH2 0x1BD5 JUMPI DUP3 DUP3 SWAP1 PUSH1 0x5 PUSH2 0x1BC5 SWAP3 SWAP2 SWAP1 PUSH2 0x1E75 JUMP JUMPDEST POP SWAP2 PUSH1 0xA0 ADD SWAP2 SWAP1 PUSH1 0x1 ADD SWAP1 PUSH2 0x1BAD JUMP JUMPDEST JUMPDEST POP SWAP1 POP PUSH2 0x1BE3 SWAP2 SWAP1 PUSH2 0x1F12 JUMP JUMPDEST POP SWAP1 JUMP JUMPDEST PUSH2 0x640 PUSH1 0x40 MLOAD SWAP1 DUP2 ADD PUSH1 0x40 MSTORE DUP1 PUSH1 0x32 SWAP1 PUSH1 0x20 DUP3 MUL DUP1 CODESIZE DUP4 CODECOPY DUP1 DUP3 ADD SWAP2 POP POP SWAP1 POP POP SWAP1 JUMP JUMPDEST DUP3 PUSH1 0xA PUSH1 0x1F ADD PUSH1 0x20 SWAP1 DIV DUP2 ADD SWAP3 DUP3 ISZERO PUSH2 0x1C97 JUMPI SWAP2 PUSH1 0x20 MUL DUP3 ADD PUSH1 0x0 JUMPDEST DUP4 DUP3 GT ISZERO PUSH2 0x1C68 JUMPI DUP4 CALLDATALOAD PUSH1 0xFF AND DUP4 DUP3 PUSH2 0x100 EXP DUP2 SLOAD DUP2 PUSH1 0xFF MUL NOT AND SWAP1 DUP4 PUSH1 0xFF AND MUL OR SWAP1 SSTORE POP SWAP3 PUSH1 0x20 ADD SWAP3 PUSH1 0x1 ADD PUSH1 0x20 DUP2 PUSH1 0x0 ADD DIV SWAP3 DUP4 ADD SWAP3 PUSH1 0x1 SUB MUL PUSH2 0x1C27 JUMP JUMPDEST DUP1 ISZERO PUSH2 0x1C95 JUMPI DUP3 DUP2 PUSH2 0x100 EXP DUP2 SLOAD SWAP1 PUSH1 0xFF MUL NOT AND SWAP1 SSTORE PUSH1 0x1 ADD PUSH1 0x20 DUP2 PUSH1 0x0 ADD DIV SWAP3 DUP4 ADD SWAP3 PUSH1 0x1 SUB MUL PUSH2 0x1C68 JUMP JUMPDEST POP JUMPDEST POP SWAP1 POP PUSH2 0x1CA4 SWAP2 SWAP1 PUSH2 0x1E02 JUMP JUMPDEST POP SWAP1 JUMP JUMPDEST DUP3 PUSH1 0xB PUSH1 0xF ADD PUSH1 0x10 SWAP1 DIV DUP2 ADD SWAP3 DUP3 ISZERO PUSH2 0x1D38 JUMPI SWAP2 PUSH1 0x20 MUL DUP3 ADD PUSH1 0x0 JUMPDEST DUP4 DUP3 GT ISZERO PUSH2 0x1D08 JUMPI DUP4 CALLDATALOAD PUSH2 0xFFFF AND DUP4 DUP3 PUSH2 0x100 EXP DUP2 SLOAD DUP2 PUSH2 0xFFFF MUL NOT AND SWAP1 DUP4 PUSH2 0xFFFF AND MUL OR SWAP1 SSTORE POP SWAP3 PUSH1 0x20 ADD SWAP3 PUSH1 0x2 ADD PUSH1 0x20 DUP2 PUSH1 0x1 ADD DIV SWAP3 DUP4 ADD SWAP3 PUSH1 0x1 SUB MUL PUSH2 0x1CC4 JUMP JUMPDEST DUP1 ISZERO PUSH2 0x1D36 JUMPI DUP3 DUP2 PUSH2 0x100 EXP DUP2 SLOAD SWAP1 PUSH2 0xFFFF MUL NOT AND SWAP1 SSTORE PUSH1 0x2 ADD PUSH1 0x20 DUP2 PUSH1 0x1 ADD DIV SWAP3 DUP4 ADD SWAP3 PUSH1 0x1 SUB MUL PUSH2 0x1D08 JUMP JUMPDEST POP JUMPDEST POP SWAP1 POP PUSH2 0x1D45 SWAP2 SWAP1 PUSH2 0x1F3E JUMP JUMPDEST POP SWAP1 JUMP JUMPDEST PUSH2 0x140 PUSH1 0x40 MLOAD SWAP1 DUP2 ADD PUSH1 0x40 MSTORE DUP1 PUSH1 0xA SWAP1 PUSH1 0x20 DUP3 MUL DUP1 CODESIZE DUP4 CODECOPY DUP1 DUP3 ADD SWAP2 POP POP SWAP1 POP POP SWAP1 JUMP JUMPDEST PUSH2 0x160 PUSH1 0x40 MLOAD SWAP1 DUP2 ADD PUSH1 0x40 MSTORE DUP1 PUSH1 0xB SWAP1 PUSH1 0x20 DUP3 MUL DUP1 CODESIZE DUP4 CODECOPY DUP1 DUP3 ADD SWAP2 POP POP SWAP1 POP POP SWAP1 JUMP JUMPDEST DUP3 PUSH1 0xB DUP2 ADD SWAP3 DUP3 ISZERO PUSH2 0x1DCD JUMPI SWAP2 PUSH1 0xA0 MUL DUP3 ADD JUMPDEST DUP3 DUP2 GT ISZERO PUSH2 0x1DCC JUMPI DUP3 DUP3 SWAP1 PUSH1 0x5 PUSH2 0x1DBC SWAP3 SWAP2 SWAP1 PUSH2 0x1E75 JUMP JUMPDEST POP SWAP2 PUSH1 0xA0 ADD SWAP2 SWAP1 PUSH1 0x1 ADD SWAP1 PUSH2 0x1DA4 JUMP JUMPDEST JUMPDEST POP SWAP1 POP PUSH2 0x1DDA SWAP2 SWAP1 PUSH2 0x1F12 JUMP JUMPDEST POP SWAP1 JUMP JUMPDEST PUSH2 0xC60 PUSH1 0x40 MLOAD SWAP1 DUP2 ADD PUSH1 0x40 MSTORE DUP1 PUSH1 0x63 SWAP1 PUSH1 0x20 DUP3 MUL DUP1 CODESIZE DUP4 CODECOPY DUP1 DUP3 ADD SWAP2 POP POP SWAP1 POP POP SWAP1 JUMP JUMPDEST PUSH2 0x1E2F SWAP2 SWAP1 JUMPDEST DUP1 DUP3 GT ISZERO PUSH2 0x1E2B JUMPI PUSH1 0x0 DUP2 DUP2 PUSH2 0x100 EXP DUP2 SLOAD SWAP1 PUSH1 0xFF MUL NOT AND SWAP1 SSTORE POP PUSH1 0x1 ADD PUSH2 0x1E08 JUMP JUMPDEST POP SWAP1 JUMP JUMPDEST SWAP1 JUMP JUMPDEST PUSH2 0x1E72 SWAP2 SWAP1 JUMPDEST DUP1 DUP3 GT ISZERO PUSH2 0x1E6E JUMPI PUSH1 0x0 DUP2 DUP2 PUSH2 0x100 EXP DUP2 SLOAD SWAP1 PUSH20 0xFFFFFFFFFFFFFFFFFFFFFFFFFFFFFFFFFFFFFFFF MUL NOT AND SWAP1 SSTORE POP PUSH1 0x1 ADD PUSH2 0x1E38 JUMP JUMPDEST POP SWAP1 JUMP JUMPDEST SWAP1 JUMP JUMPDEST DUP3 PUSH1 0x5 PUSH1 0x1F ADD PUSH1 0x20 SWAP1 DIV DUP2 ADD SWAP3 DUP3 ISZERO PUSH2 0x1F01 JUMPI SWAP2 PUSH1 0x20 MUL DUP3 ADD PUSH1 0x0 JUMPDEST DUP4 DUP3 GT ISZERO PUSH2 0x1ED2 JUMPI DUP4 CALLDATALOAD PUSH1 0xFF AND DUP4 DUP3 PUSH2 0x100 EXP DUP2 SLOAD DUP2 PUSH1 0xFF MUL NOT AND SWAP1 DUP4 PUSH1 0xFF AND MUL OR SWAP1 SSTORE POP SWAP3 PUSH1 0x20 ADD SWAP3 PUSH1 0x1 ADD PUSH1 0x20 DUP2 PUSH1 0x0 ADD DIV SWAP3 DUP4 ADD SWAP3 PUSH1 0x1 SUB MUL PUSH2 0x1E91 JUMP JUMPDEST DUP1 ISZERO PUSH2 0x1EFF JUMPI DUP3 DUP2 PUSH2 0x100 EXP DUP2 SLOAD SWAP1 PUSH1 0xFF MUL NOT AND SWAP1 SSTORE PUSH1 0x1 ADD PUSH1 0x20 DUP2 PUSH1 0x0 ADD DIV SWAP3 DUP4 ADD SWAP3 PUSH1 0x1 SUB MUL PUSH2 0x1ED2 JUMP JUMPDEST POP JUMPDEST POP SWAP1 POP PUSH2 0x1F0E SWAP2 SWAP1 PUSH2 0x1E02 JUMP JUMPDEST POP SWAP1 JUMP JUMPDEST PUSH2 0x1F3B SWAP2 SWAP1 JUMPDEST DUP1 DUP3 GT ISZERO PUSH2 0x1F37 JUMPI PUSH1 0x0 DUP2 DUP2 PUSH2 0x1F2E SWAP2 SWAP1 PUSH2 0x1F6F JUMP JUMPDEST POP PUSH1 0x1 ADD PUSH2 0x1F18 JUMP JUMPDEST POP SWAP1 JUMP JUMPDEST SWAP1 JUMP JUMPDEST PUSH2 0x1F6C SWAP2 SWAP1 JUMPDEST DUP1 DUP3 GT ISZERO PUSH2 0x1F68 JUMPI PUSH1 0x0 DUP2 DUP2 PUSH2 0x100 EXP DUP2 SLOAD SWAP1 PUSH2 0xFFFF MUL NOT AND SWAP1 SSTORE POP PUSH1 0x1 ADD PUSH2 0x1F44 JUMP JUMPDEST POP SWAP1 JUMP JUMPDEST SWAP1 JUMP JUMPDEST POP PUSH1 0x0 SWAP1 SSTORE JUMP STOP LOG1 PUSH6 0x627A7A723058 KECCAK256 SWAP7 LOG0 ADDMOD PUSH25 0x8CF418EFE45D81840A76174EEFDD04A8E25749E53A60906B48 0x2c 0x2d 0x2c STOP 0x29 "
		},
		"gasEstimates": {
			"creation": {
				"codeDepositCost": "1619600",
				"executionCost": "21943",
				"totalCost": "1641543"
			},
			"external": {
				"bodyPartsFactors(uint8)": "infinite",
				"clashPoints()": "670",
				"dnaPoints(uint8)": "2565",
				"experienceToNextLevel(uint8)": "2249",
				"geneTypesFactors(uint8)": "infinite",
				"geneUpgradeDNAPoints(uint8)": "2689",
				"getBodyPartsFactors()": "infinite",
				"getDNAPoints()": "infinite",
				"getExperienceToNextLevel()": "infinite",
				"getExternalDependencies()": "infinite",
				"getGeneTypesFactors()": "infinite",
				"getGeneUpgradeDNAPoints()": "infinite",
				"getInternalDependencies()": "infinite",
				"getTomatoTypesFactors()": "infinite",
				"owner()": "640",
				"setBodyPartsFactors(uint8[5][10])": "infinite",
				"setExternalDependencies(address[])": "infinite",
				"setGeneTypesFactors(uint8[5][10])": "infinite",
				"setGeneUpgradeDNAPoints(uint8[99])": "infinite",
				"setInternalDependencies(address[])": "infinite",
				"setLevelUpPoints(uint8[10],uint16[11],uint8)": "infinite",
				"setTomatoTypesFactors(uint8[5][11])": "infinite",
				"tomatoTypesFactors(uint8)": "infinite",
				"transferOwnership(address)": "23078"
			},
			"internal": {
				"_transformArray(uint8[5] memory[10] memory)": "infinite"
			}
		},
		"methodIdentifiers": {
			"bodyPartsFactors(uint8)": "ee5d276f",
			"clashPoints()": "91cf58c7",
			"dnaPoints(uint8)": "c6610f94",
			"experienceToNextLevel(uint8)": "54072d25",
			"geneTypesFactors(uint8)": "21ee0f14",
			"geneUpgradeDNAPoints(uint8)": "fe8e080e",
			"getBodyPartsFactors()": "ea32c6f9",
			"getDNAPoints()": "b533aaf3",
			"getExperienceToNextLevel()": "925c036b",
			"getExternalDependencies()": "e6458f6e",
			"getGeneTypesFactors()": "84e51f8a",
			"getGeneUpgradeDNAPoints()": "be7c1c84",
			"getInternalDependencies()": "b75c4f80",
			"getTomatoTypesFactors()": "580e2af4",
			"owner()": "8da5cb5b",
			"setBodyPartsFactors(uint8[5][10])": "dec27bff",
			"setExternalDependencies(address[])": "65fc1253",
			"setGeneTypesFactors(uint8[5][10])": "686c251c",
			"setGeneUpgradeDNAPoints(uint8[99])": "01135df2",
			"setInternalDependencies(address[])": "69c0ad93",
			"setLevelUpPoints(uint8[10],uint16[11],uint8)": "91ed9249",
			"setTomatoTypesFactors(uint8[5][11])": "bc0eed1f",
			"tomatoTypesFactors(uint8)": "1fbfb3e1",
			"transferOwnership(address)": "f2fde38b"
		}
	},
	"abi": [
		{
			"constant": false,
			"inputs": [
				{
					"name": "_points",
					"type": "uint8[99]"
				}
			],
			"name": "setGeneUpgradeDNAPoints",
			"outputs": [],
			"payable": false,
			"stateMutability": "nonpayable",
			"type": "function"
		},
		{
			"constant": true,
			"inputs": [
				{
					"name": "_index",
					"type": "uint8"
				}
			],
			"name": "tomatoTypesFactors",
			"outputs": [
				{
					"name": "",
					"type": "uint8[5]"
				}
			],
			"payable": false,
			"stateMutability": "view",
			"type": "function"
		},
		{
			"constant": true,
			"inputs": [
				{
					"name": "_index",
					"type": "uint8"
				}
			],
			"name": "geneTypesFactors",
			"outputs": [
				{
					"name": "",
					"type": "uint8[5]"
				}
			],
			"payable": false,
			"stateMutability": "view",
			"type": "function"
		},
		{
			"constant": true,
			"inputs": [
				{
					"name": "_index",
					"type": "uint8"
				}
			],
			"name": "experienceToNextLevel",
			"outputs": [
				{
					"name": "",
					"type": "uint8"
				}
			],
			"payable": false,
			"stateMutability": "view",
			"type": "function"
		},
		{
			"constant": true,
			"inputs": [],
			"name": "getTomatoTypesFactors",
			"outputs": [
				{
					"name": "result",
					"type": "uint8[55]"
				}
			],
			"payable": false,
			"stateMutability": "view",
			"type": "function"
		},
		{
			"constant": false,
			"inputs": [
				{
					"name": "_newDependencies",
					"type": "address[]"
				}
			],
			"name": "setExternalDependencies",
			"outputs": [],
			"payable": false,
			"stateMutability": "nonpayable",
			"type": "function"
		},
		{
			"constant": false,
			"inputs": [
				{
					"name": "_geneTypes",
					"type": "uint8[5][10]"
				}
			],
			"name": "setGeneTypesFactors",
			"outputs": [],
			"payable": false,
			"stateMutability": "nonpayable",
			"type": "function"
		},
		{
			"constant": false,
			"inputs": [
				{
					"name": "_newDependencies",
					"type": "address[]"
				}
			],
			"name": "setInternalDependencies",
			"outputs": [],
			"payable": false,
			"stateMutability": "nonpayable",
			"type": "function"
		},
		{
			"constant": true,
			"inputs": [],
			"name": "getGeneTypesFactors",
			"outputs": [
				{
					"name": "",
					"type": "uint8[50]"
				}
			],
			"payable": false,
			"stateMutability": "view",
			"type": "function"
		},
		{
			"constant": true,
			"inputs": [],
			"name": "owner",
			"outputs": [
				{
					"name": "",
					"type": "address"
				}
			],
			"payable": false,
			"stateMutability": "view",
			"type": "function"
		},
		{
			"constant": true,
			"inputs": [],
			"name": "clashPoints",
			"outputs": [
				{
					"name": "",
					"type": "uint8"
				}
			],
			"payable": false,
			"stateMutability": "view",
			"type": "function"
		},
		{
			"constant": false,
			"inputs": [
				{
					"name": "_experienceToNextLevel",
					"type": "uint8[10]"
				},
				{
					"name": "_dnaPoints",
					"type": "uint16[11]"
				},
				{
					"name": "_clashPoints",
					"type": "uint8"
				}
			],
			"name": "setLevelUpPoints",
			"outputs": [],
			"payable": false,
			"stateMutability": "nonpayable",
			"type": "function"
		},
		{
			"constant": true,
			"inputs": [],
			"name": "getExperienceToNextLevel",
			"outputs": [
				{
					"name": "",
					"type": "uint8[10]"
				}
			],
			"payable": false,
			"stateMutability": "view",
			"type": "function"
		},
		{
			"constant": true,
			"inputs": [],
			"name": "getDNAPoints",
			"outputs": [
				{
					"name": "",
					"type": "uint16[11]"
				}
			],
			"payable": false,
			"stateMutability": "view",
			"type": "function"
		},
		{
			"constant": true,
			"inputs": [],
			"name": "getInternalDependencies",
			"outputs": [
				{
					"name": "",
					"type": "address[]"
				}
			],
			"payable": false,
			"stateMutability": "view",
			"type": "function"
		},
		{
			"constant": false,
			"inputs": [
				{
					"name": "_types",
					"type": "uint8[5][11]"
				}
			],
			"name": "setTomatoTypesFactors",
			"outputs": [],
			"payable": false,
			"stateMutability": "nonpayable",
			"type": "function"
		},
		{
			"constant": true,
			"inputs": [],
			"name": "getGeneUpgradeDNAPoints",
			"outputs": [
				{
					"name": "",
					"type": "uint8[99]"
				}
			],
			"payable": false,
			"stateMutability": "view",
			"type": "function"
		},
		{
			"constant": true,
			"inputs": [
				{
					"name": "_index",
					"type": "uint8"
				}
			],
			"name": "dnaPoints",
			"outputs": [
				{
					"name": "",
					"type": "uint16"
				}
			],
			"payable": false,
			"stateMutability": "view",
			"type": "function"
		},
		{
			"constant": false,
			"inputs": [
				{
					"name": "_bodyParts",
					"type": "uint8[5][10]"
				}
			],
			"name": "setBodyPartsFactors",
			"outputs": [],
			"payable": false,
			"stateMutability": "nonpayable",
			"type": "function"
		},
		{
			"constant": true,
			"inputs": [],
			"name": "getExternalDependencies",
			"outputs": [
				{
					"name": "",
					"type": "address[]"
				}
			],
			"payable": false,
			"stateMutability": "view",
			"type": "function"
		},
		{
			"constant": true,
			"inputs": [],
			"name": "getBodyPartsFactors",
			"outputs": [
				{
					"name": "",
					"type": "uint8[50]"
				}
			],
			"payable": false,
			"stateMutability": "view",
			"type": "function"
		},
		{
			"constant": true,
			"inputs": [
				{
					"name": "_index",
					"type": "uint8"
				}
			],
			"name": "bodyPartsFactors",
			"outputs": [
				{
					"name": "",
					"type": "uint8[5]"
				}
			],
			"payable": false,
			"stateMutability": "view",
			"type": "function"
		},
		{
			"constant": false,
			"inputs": [
				{
					"name": "newOwner",
					"type": "address"
				}
			],
			"name": "transferOwnership",
			"outputs": [],
			"payable": false,
			"stateMutability": "nonpayable",
			"type": "function"
		},
		{
			"constant": true,
			"inputs": [
				{
					"name": "_index",
					"type": "uint8"
				}
			],
			"name": "geneUpgradeDNAPoints",
			"outputs": [
				{
					"name": "",
					"type": "uint8"
				}
			],
			"payable": false,
			"stateMutability": "view",
			"type": "function"
		},
		{
			"anonymous": false,
			"inputs": [
				{
					"indexed": true,
					"name": "previousOwner",
					"type": "address"
				},
				{
					"indexed": true,
					"name": "newOwner",
					"type": "address"
				}
			],
			"name": "OwnershipTransferred",
			"type": "event"
		}
	]
}